{
  "contractName": "LegoCertificationStore",
  "abi": [
    {
      "constant": true,
      "inputs": [
        {
          "name": "",
          "type": "uint256"
        }
      ],
      "name": "certificates",
      "outputs": [
        {
          "name": "name",
          "type": "string"
        },
        {
          "name": "number",
          "type": "string"
        },
        {
          "name": "theme",
          "type": "string"
        },
        {
          "name": "subtheme",
          "type": "string"
        },
        {
          "name": "descritpion",
          "type": "string"
        },
        {
          "name": "bricksJsonData",
          "type": "string"
        },
        {
          "name": "dna",
          "type": "uint256"
        }
      ],
      "payable": false,
      "stateMutability": "view",
      "type": "function"
    },
    {
      "constant": true,
      "inputs": [],
      "name": "dnaDigits",
      "outputs": [
        {
          "name": "",
          "type": "uint256"
        }
      ],
      "payable": false,
      "stateMutability": "view",
      "type": "function"
    },
    {
      "constant": false,
      "inputs": [],
      "name": "renounceOwnership",
      "outputs": [],
      "payable": false,
      "stateMutability": "nonpayable",
      "type": "function"
    },
    {
      "constant": true,
      "inputs": [],
      "name": "owner",
      "outputs": [
        {
          "name": "",
          "type": "address"
        }
      ],
      "payable": false,
      "stateMutability": "view",
      "type": "function"
    },
    {
      "constant": true,
      "inputs": [],
      "name": "isOwner",
      "outputs": [
        {
          "name": "",
          "type": "bool"
        }
      ],
      "payable": false,
      "stateMutability": "view",
      "type": "function"
    },
    {
      "constant": true,
      "inputs": [],
      "name": "dnaModulus",
      "outputs": [
        {
          "name": "",
          "type": "uint256"
        }
      ],
      "payable": false,
      "stateMutability": "view",
      "type": "function"
    },
    {
      "constant": false,
      "inputs": [
        {
          "name": "newOwner",
          "type": "address"
        }
      ],
      "name": "transferOwnership",
      "outputs": [],
      "payable": false,
      "stateMutability": "nonpayable",
      "type": "function"
    },
    {
      "inputs": [],
      "payable": false,
      "stateMutability": "nonpayable",
      "type": "constructor"
    },
    {
      "anonymous": false,
      "inputs": [
        {
          "indexed": false,
          "name": "certificateId",
          "type": "uint256"
        },
        {
          "indexed": false,
          "name": "name",
          "type": "string"
        },
        {
          "indexed": false,
          "name": "number",
          "type": "string"
        },
        {
          "indexed": false,
          "name": "theme",
          "type": "string"
        },
        {
          "indexed": false,
          "name": "subtheme",
          "type": "string"
        },
        {
          "indexed": false,
          "name": "descritpion",
          "type": "string"
        },
        {
          "indexed": false,
          "name": "bricksJsonData",
          "type": "string"
        },
        {
          "indexed": false,
          "name": "dna",
          "type": "uint256"
        }
      ],
      "name": "NewCertificate",
      "type": "event"
    },
    {
      "anonymous": false,
      "inputs": [
        {
          "indexed": true,
          "name": "previousOwner",
          "type": "address"
        },
        {
          "indexed": true,
          "name": "newOwner",
          "type": "address"
        }
      ],
      "name": "OwnershipTransferred",
      "type": "event"
    },
    {
      "constant": false,
      "inputs": [
        {
          "name": "_name",
          "type": "string"
        },
        {
          "name": "_number",
          "type": "string"
        },
        {
          "name": "_theme",
          "type": "string"
        },
        {
          "name": "_subtheme",
          "type": "string"
        },
        {
          "name": "_descritpion",
          "type": "string"
        },
        {
          "name": "_bricksJsonData",
          "type": "string"
        },
        {
          "name": "_bricks",
          "type": "string[]"
        },
        {
          "name": "_registers",
          "type": "string[]"
        }
      ],
      "name": "createNewCertificate",
      "outputs": [],
      "payable": false,
      "stateMutability": "nonpayable",
      "type": "function"
    },
    {
      "constant": true,
      "inputs": [
        {
          "name": "_address",
          "type": "address"
        }
      ],
      "name": "getOwnedCertificatesCount",
      "outputs": [
        {
          "name": "_count",
          "type": "uint256"
        }
      ],
      "payable": false,
      "stateMutability": "view",
      "type": "function"
    },
    {
      "constant": true,
      "inputs": [],
      "name": "getCertificatesLength",
      "outputs": [
        {
          "name": "",
          "type": "uint256"
        }
      ],
      "payable": false,
      "stateMutability": "view",
      "type": "function"
    },
    {
      "constant": true,
      "inputs": [
        {
          "name": "_address",
          "type": "address"
        }
      ],
      "name": "getOwnedCertificates",
      "outputs": [
        {
          "components": [
            {
              "name": "name",
              "type": "string"
            },
            {
              "name": "number",
              "type": "string"
            },
            {
              "name": "theme",
              "type": "string"
            },
            {
              "name": "subtheme",
              "type": "string"
            },
            {
              "name": "descritpion",
              "type": "string"
            },
            {
              "name": "bricksJsonData",
              "type": "string"
            },
            {
              "name": "dna",
              "type": "uint256"
            }
          ],
          "name": "_certificates",
          "type": "tuple[]"
        }
      ],
      "payable": false,
      "stateMutability": "view",
      "type": "function"
    },
    {
      "constant": true,
      "inputs": [
        {
          "name": "_address",
          "type": "address"
        }
      ],
      "name": "getOwnedCertificatesIds",
      "outputs": [
        {
          "name": "_ids",
          "type": "uint256[]"
        }
      ],
      "payable": false,
      "stateMutability": "view",
      "type": "function"
    }
  ],
  "bytecode": "0x6080604052610100600455600160045460020a036005553480156200002357600080fd5b50336000806101000a81548173ffffffffffffffffffffffffffffffffffffffff021916908373ffffffffffffffffffffffffffffffffffffffff1602179055506000809054906101000a900473ffffffffffffffffffffffffffffffffffffffff1673ffffffffffffffffffffffffffffffffffffffff16600073ffffffffffffffffffffffffffffffffffffffff167f8be0079c531659141344cd1fd0a4f28419497f9722a3daafe3b4186f6b6457e060405160405180910390a36000600181620000f19190620000f8565b5062000237565b81548183558181111562000128576007028160070283600052602060002091820191016200012791906200012d565b5b505050565b620001c091905b80821115620001bc5760008082016000620001509190620001c3565b600182016000620001629190620001c3565b600282016000620001749190620001c3565b600382016000620001869190620001c3565b600482016000620001989190620001c3565b600582016000620001aa9190620001c3565b60068201600090555060070162000134565b5090565b90565b50805460018160011615610100020316600290046000825580601f10620001eb57506200020c565b601f0160209004906000526020600020908101906200020b91906200020f565b5b50565b6200023491905b808211156200023057600081600090555060010162000216565b5090565b90565b611dd780620002476000396000f3fe608060405234801561001057600080fd5b50600436106100d1576000357c0100000000000000000000000000000000000000000000000000000000900480638da5cb5b1161008e5780638da5cb5b146101c45780638f32d59b146101e2578063c503b4da14610200578063daba07111461021e578063dd4935ae1461023c578063f2fde38b14610258576100d1565b80630c3ceb2e146100d65780631f7495b714610106578063495f497214610136578063663b3e2214610166578063692c66271461019c578063715018a6146101ba575b600080fd5b6100f060048036036100eb919081019061161e565b610274565b6040516100fd9190611a40565b60405180910390f35b610120600480360361011b919081019061161e565b6103f0565b60405161012d9190611b16565b60405180910390f35b610150600480360361014b919081019061161e565b610439565b60405161015d9190611a1e565b60405180910390f35b610180600480360361017b91908101906117b9565b6109bd565b6040516101939796959493929190611a7d565b60405180910390f35b6101a4610d9e565b6040516101b19190611b16565b60405180910390f35b6101c2610da4565b005b6101cc610e76565b6040516101d99190611a03565b60405180910390f35b6101ea610e9f565b6040516101f79190611a62565b60405180910390f35b610208610ef6565b6040516102159190611b16565b60405180910390f35b610226610f03565b6040516102339190611b16565b60405180910390f35b61025660048036036102519190810190611647565b610f09565b005b610272600480360361026d919081019061161e565b610f32565b005b60606000610280610ef6565b9050600080905060008090505b82811015610312576002600082815260200190815260200160002060009054906101000a900473ffffffffffffffffffffffffffffffffffffffff1673ffffffffffffffffffffffffffffffffffffffff168573ffffffffffffffffffffffffffffffffffffffff1614156103055781806001019250505b808060010191505061028d565b50806040519080825280602002602001820160405280156103425781602001602082028038833980820191505090505b50925060008090505b828110156103e5576002600082815260200190815260200160002060009054906101000a900473ffffffffffffffffffffffffffffffffffffffff1673ffffffffffffffffffffffffffffffffffffffff168573ffffffffffffffffffffffffffffffffffffffff1614156103d8578084828151811015156103c957fe5b90602001906020020181815250505b808060010191505061034b565b508292505050919050565b6000600360008373ffffffffffffffffffffffffffffffffffffffff1673ffffffffffffffffffffffffffffffffffffffff168152602001908152602001600020549050919050565b60606000610445610ef6565b9050600080905060008090505b828110156104d7576002600082815260200190815260200160002060009054906101000a900473ffffffffffffffffffffffffffffffffffffffff1673ffffffffffffffffffffffffffffffffffffffff168573ffffffffffffffffffffffffffffffffffffffff1614156104ca5781806001019250505b8080600101915050610452565b508060405190808252806020026020018201604052801561051257816020015b6104ff6113f1565b8152602001906001900390816104f75790505b50925060008090505b828110156109b2576002600082815260200190815260200160002060009054906101000a900473ffffffffffffffffffffffffffffffffffffffff1673ffffffffffffffffffffffffffffffffffffffff168573ffffffffffffffffffffffffffffffffffffffff1614156109a55760018181548110151561059957fe5b906000526020600020906007020160e06040519081016040529081600082018054600181600116156101000203166002900480601f01602080910402602001604051908101604052809291908181526020018280546001816001161561010002031660029004801561064c5780601f106106215761010080835404028352916020019161064c565b820191906000526020600020905b81548152906001019060200180831161062f57829003601f168201915b50505050508152602001600182018054600181600116156101000203166002900480601f0160208091040260200160405190810160405280929190818152602001828054600181600116156101000203166002900480156106ee5780601f106106c3576101008083540402835291602001916106ee565b820191906000526020600020905b8154815290600101906020018083116106d157829003601f168201915b50505050508152602001600282018054600181600116156101000203166002900480601f0160208091040260200160405190810160405280929190818152602001828054600181600116156101000203166002900480156107905780601f1061076557610100808354040283529160200191610790565b820191906000526020600020905b81548152906001019060200180831161077357829003601f168201915b50505050508152602001600382018054600181600116156101000203166002900480601f0160208091040260200160405190810160405280929190818152602001828054600181600116156101000203166002900480156108325780601f1061080757610100808354040283529160200191610832565b820191906000526020600020905b81548152906001019060200180831161081557829003601f168201915b50505050508152602001600482018054600181600116156101000203166002900480601f0160208091040260200160405190810160405280929190818152602001828054600181600116156101000203166002900480156108d45780601f106108a9576101008083540402835291602001916108d4565b820191906000526020600020905b8154815290600101906020018083116108b757829003601f168201915b50505050508152602001600582018054600181600116156101000203166002900480601f0160208091040260200160405190810160405280929190818152602001828054600181600116156101000203166002900480156109765780601f1061094b57610100808354040283529160200191610976565b820191906000526020600020905b81548152906001019060200180831161095957829003601f168201915b50505050508152602001600682015481525050848281518110151561099757fe5b906020019060200201819052505b808060010191505061051b565b508292505050919050565b6001818154811015156109cc57fe5b9060005260206000209060070201600091509050806000018054600181600116156101000203166002900480601f016020809104026020016040519081016040528092919081815260200182805460018160011615610100020316600290048015610a785780601f10610a4d57610100808354040283529160200191610a78565b820191906000526020600020905b815481529060010190602001808311610a5b57829003601f168201915b505050505090806001018054600181600116156101000203166002900480601f016020809104026020016040519081016040528092919081815260200182805460018160011615610100020316600290048015610b165780601f10610aeb57610100808354040283529160200191610b16565b820191906000526020600020905b815481529060010190602001808311610af957829003601f168201915b505050505090806002018054600181600116156101000203166002900480601f016020809104026020016040519081016040528092919081815260200182805460018160011615610100020316600290048015610bb45780601f10610b8957610100808354040283529160200191610bb4565b820191906000526020600020905b815481529060010190602001808311610b9757829003601f168201915b505050505090806003018054600181600116156101000203166002900480601f016020809104026020016040519081016040528092919081815260200182805460018160011615610100020316600290048015610c525780601f10610c2757610100808354040283529160200191610c52565b820191906000526020600020905b815481529060010190602001808311610c3557829003601f168201915b505050505090806004018054600181600116156101000203166002900480601f016020809104026020016040519081016040528092919081815260200182805460018160011615610100020316600290048015610cf05780601f10610cc557610100808354040283529160200191610cf0565b820191906000526020600020905b815481529060010190602001808311610cd357829003601f168201915b505050505090806005018054600181600116156101000203166002900480601f016020809104026020016040519081016040528092919081815260200182805460018160011615610100020316600290048015610d8e5780601f10610d6357610100808354040283529160200191610d8e565b820191906000526020600020905b815481529060010190602001808311610d7157829003601f168201915b5050505050908060060154905087565b60045481565b610dac610e9f565b1515610db757600080fd5b600073ffffffffffffffffffffffffffffffffffffffff166000809054906101000a900473ffffffffffffffffffffffffffffffffffffffff1673ffffffffffffffffffffffffffffffffffffffff167f8be0079c531659141344cd1fd0a4f28419497f9722a3daafe3b4186f6b6457e060405160405180910390a360008060006101000a81548173ffffffffffffffffffffffffffffffffffffffff021916908373ffffffffffffffffffffffffffffffffffffffff160217905550565b60008060009054906101000a900473ffffffffffffffffffffffffffffffffffffffff16905090565b60008060009054906101000a900473ffffffffffffffffffffffffffffffffffffffff1673ffffffffffffffffffffffffffffffffffffffff163373ffffffffffffffffffffffffffffffffffffffff1614905090565b6000600180549050905090565b60055481565b6000610f16898686610f51565b9050610f27898989898989876110e6565b505050505050505050565b610f3a610e9f565b1515610f4557600080fd5b610f4e816112f7565b50565b600080846040516020018082805190602001908083835b602083101515610f8d5780518252602082019150602081019050602083039250610f68565b6001836020036101000a038019825116818451168082178552505050505050905001915050604051602081830303815290604052805190602001206001900490506000846040516020018082805190602001908083835b6020831015156110095780518252602082019150602081019050602083039250610fe4565b6001836020036101000a038019825116818451168082178552505050505050905001915050604051602081830303815290604052805190602001206001900490506000846040516020018082805190602001908083835b6020831015156110855780518252602082019150602081019050602083039250611060565b6001836020036101000a03801982511681845116808217855250505050505090500191505060405160208183030381529060405280519060200120600190049050600554818284860103028115156110d957fe5b0693505050509392505050565b600060018060e0604051908101604052808b81526020018a81526020018981526020018881526020018781526020018681526020018581525090806001815401808255809150509060018203906000526020600020906007020160009091929091909150600082015181600001908051906020019061116692919061142f565b50602082015181600101908051906020019061118392919061142f565b5060408201518160020190805190602001906111a092919061142f565b5060608201518160030190805190602001906111bd92919061142f565b5060808201518160040190805190602001906111da92919061142f565b5060a08201518160050190805190602001906111f792919061142f565b5060c082015181600601555050039050336002600083815260200190815260200160002060006101000a81548173ffffffffffffffffffffffffffffffffffffffff021916908373ffffffffffffffffffffffffffffffffffffffff160217905550600360003373ffffffffffffffffffffffffffffffffffffffff1673ffffffffffffffffffffffffffffffffffffffff168152602001908152602001600020600081548092919060010191905055507f2103c40b1f5e714ab7ed53d7379f1ebf74e43d5e417af90f6dab9fb8b5c3e21e81898989898989896040516112e5989796959493929190611b31565b60405180910390a15050505050505050565b600073ffffffffffffffffffffffffffffffffffffffff168173ffffffffffffffffffffffffffffffffffffffff161415151561133357600080fd5b8073ffffffffffffffffffffffffffffffffffffffff166000809054906101000a900473ffffffffffffffffffffffffffffffffffffffff1673ffffffffffffffffffffffffffffffffffffffff167f8be0079c531659141344cd1fd0a4f28419497f9722a3daafe3b4186f6b6457e060405160405180910390a3806000806101000a81548173ffffffffffffffffffffffffffffffffffffffff021916908373ffffffffffffffffffffffffffffffffffffffff16021790555050565b60e060405190810160405280606081526020016060815260200160608152602001606081526020016060815260200160608152602001600081525090565b828054600181600116156101000203166002900490600052602060002090601f016020900481019282601f1061147057805160ff191683800117855561149e565b8280016001018555821561149e579182015b8281111561149d578251825591602001919060010190611482565b5b5090506114ab91906114af565b5090565b6114d191905b808211156114cd5760008160009055506001016114b5565b5090565b90565b60006114e08235611d2e565b905092915050565b600082601f83011215156114fb57600080fd5b813561150e61150982611c06565b611bd9565b9150818183526020840193506020810190508360005b83811015611554578135860161153a888261155e565b845260208401935060208301925050600181019050611524565b5050505092915050565b600082601f830112151561157157600080fd5b813561158461157f82611c2e565b611bd9565b915080825260208301602083018583830111156115a057600080fd5b6115ab838284611d4a565b50505092915050565b600082601f83011215156115c757600080fd5b81356115da6115d582611c5a565b611bd9565b915080825260208301602083018583830111156115f657600080fd5b611601838284611d4a565b50505092915050565b60006116168235611d40565b905092915050565b60006020828403121561163057600080fd5b600061163e848285016114d4565b91505092915050565b600080600080600080600080610100898b03121561166457600080fd5b600089013567ffffffffffffffff81111561167e57600080fd5b61168a8b828c016115b4565b985050602089013567ffffffffffffffff8111156116a757600080fd5b6116b38b828c016115b4565b975050604089013567ffffffffffffffff8111156116d057600080fd5b6116dc8b828c016115b4565b965050606089013567ffffffffffffffff8111156116f957600080fd5b6117058b828c016115b4565b955050608089013567ffffffffffffffff81111561172257600080fd5b61172e8b828c016115b4565b94505060a089013567ffffffffffffffff81111561174b57600080fd5b6117578b828c016115b4565b93505060c089013567ffffffffffffffff81111561177457600080fd5b6117808b828c016114e8565b92505060e089013567ffffffffffffffff81111561179d57600080fd5b6117a98b828c016114e8565b9150509295985092959890939650565b6000602082840312156117cb57600080fd5b60006117d98482850161160a565b91505092915050565b6117eb81611ce6565b82525050565b60006117fc82611ca0565b8084526020840193508360208202850161181585611c86565b60005b8481101561184e578383038852611830838351611935565b925061183b82611ccc565b9150602088019750600181019050611818565b508196508694505050505092915050565b600061186a82611cab565b80845260208401935061187c83611c93565b60005b828110156118ae576118928683516119f4565b61189b82611cd9565b915060208601955060018101905061187f565b50849250505092915050565b6118c381611cf8565b82525050565b60006118d482611cc1565b8084526118e8816020860160208601611d59565b6118f181611d8c565b602085010191505092915050565b600061190a82611cb6565b80845261191e816020860160208601611d59565b61192781611d8c565b602085010191505092915050565b600060e083016000830151848203600086015261195282826118ff565b9150506020830151848203602086015261196c82826118ff565b9150506040830151848203604086015261198682826118ff565b915050606083015184820360608601526119a082826118ff565b915050608083015184820360808601526119ba82826118ff565b91505060a083015184820360a08601526119d482826118ff565b91505060c08301516119e960c08601826119f4565b508091505092915050565b6119fd81611d24565b82525050565b6000602082019050611a1860008301846117e2565b92915050565b60006020820190508181036000830152611a3881846117f1565b905092915050565b60006020820190508181036000830152611a5a818461185f565b905092915050565b6000602082019050611a7760008301846118ba565b92915050565b600060e0820190508181036000830152611a97818a6118ff565b90508181036020830152611aab81896118ff565b90508181036040830152611abf81886118ff565b90508181036060830152611ad381876118ff565b90508181036080830152611ae781866118ff565b905081810360a0830152611afb81856118ff565b9050611b0a60c08301846119f4565b98975050505050505050565b6000602082019050611b2b60008301846119f4565b92915050565b600061010082019050611b47600083018b6119f4565b8181036020830152611b59818a6118c9565b90508181036040830152611b6d81896118c9565b90508181036060830152611b8181886118c9565b90508181036080830152611b9581876118c9565b905081810360a0830152611ba981866118c9565b905081810360c0830152611bbd81856118c9565b9050611bcc60e08301846119f4565b9998505050505050505050565b6000604051905081810181811067ffffffffffffffff82111715611bfc57600080fd5b8060405250919050565b600067ffffffffffffffff821115611c1d57600080fd5b602082029050602081019050919050565b600067ffffffffffffffff821115611c4557600080fd5b601f19601f8301169050602081019050919050565b600067ffffffffffffffff821115611c7157600080fd5b601f19601f8301169050602081019050919050565b6000602082019050919050565b6000602082019050919050565b600081519050919050565b600081519050919050565b600081519050919050565b600081519050919050565b6000602082019050919050565b6000602082019050919050565b6000611cf182611d04565b9050919050565b60008115159050919050565b600073ffffffffffffffffffffffffffffffffffffffff82169050919050565b6000819050919050565b6000611d3982611d04565b9050919050565b6000819050919050565b82818337600083830152505050565b60005b83811015611d77578082015181840152602081019050611d5c565b83811115611d86576000848401525b50505050565b6000601f19601f830116905091905056fea265627a7a723058203734529b933a9404857831f9a25db7e77830d8bdfeca4661f1e3477ef0364e6d6c6578706572696d656e74616cf50037",
  "source": "pragma solidity ^0.5.2;\r\npragma experimental ABIEncoderV2;\r\n\r\nimport \"openzeppelin-solidity/contracts/ownership/Ownable.sol\";\r\nimport \"openzeppelin-solidity/contracts/math/SafeMath.sol\";\r\n\r\ncontract LegoCertificationStore is Ownable {\r\n    using SafeMath for uint256;\r\n\r\n    struct LegoCertificate {\r\n        string name;\r\n        string number;\r\n        string theme;\r\n        string subtheme;\r\n        string descritpion;\r\n        string bricksJsonData;\r\n        uint dna;\r\n    }\r\n\r\n    event NewCertificate(uint certificateId, string name, string number,\r\n        string theme, string subtheme, string descritpion, string bricksJsonData, uint dna);\r\n\r\n    LegoCertificate[] public certificates;\r\n\r\n    mapping (uint => address) private certificateToOwner;\r\n    mapping (address => uint) private ownedCertificatesCount;\r\n\r\n    uint public dnaDigits = 256;\r\n    uint public dnaModulus = (2 ** dnaDigits) - 1;\r\n\r\n    constructor() Ownable() public {\r\n        certificates.length = 0;\r\n    }\r\n\r\n    //\"gdsfgdsfg\",\"gdsfgdsfg\",\"gdsfgdsfg\",\"gdsfgdsfg\",\"gdsfgdsfg\",\"gdsfgdsfg\",[\"gdsfgdsfg\"],[\"gdsfgdsfg\"]\r\n\r\n    function createNewCertificate(string memory _name,\r\n        string memory  _number,\r\n        string memory _theme,\r\n        string memory _subtheme,\r\n        string memory _descritpion,\r\n        string memory _bricksJsonData, string[] memory _bricks, string[] memory _registers) public {\r\n        uint randDna = _generateRandomDna(_name, _descritpion, _bricksJsonData);\r\n        _createCertificate(_name, _number, _theme, _subtheme, _descritpion, _bricksJsonData, randDna);\r\n    }\r\n\r\n    function _createCertificate(string memory _name,\r\n        string memory _number,\r\n        string memory _theme,\r\n        string memory _subtheme,\r\n        string memory _descritpion,\r\n        string memory _bricksJsonData,\r\n        uint _dna) internal {\r\n        uint id = certificates.push(LegoCertificate(_name, _number, _theme, _subtheme, _descritpion, _bricksJsonData, _dna)) - 1;\r\n        certificateToOwner[id] = msg.sender;\r\n        ownedCertificatesCount[msg.sender]++;\r\n        emit NewCertificate(id, _name, _number, _theme, _subtheme, _descritpion, _bricksJsonData, _dna);\r\n    }\r\n\r\n    function getOwnedCertificatesCount(address _address) public view returns (uint _count) {\r\n        return ownedCertificatesCount[_address];\r\n    }\r\n\r\n    function getCertificatesLength() public view returns(uint){\r\n        return certificates.length;\r\n    }\r\n\r\n    function  getOwnedCertificates(address _address) public view returns (LegoCertificate[] memory _certificates) {\r\n        uint length = getCertificatesLength();\r\n        uint counter = 0;\r\n        for(uint i = 0; i < length; i++){\r\n            if(_address == certificateToOwner[i])\r\n            {\r\n                counter++;\r\n            }\r\n        }\r\n        _certificates = new LegoCertificate[](counter);\r\n        for(uint i = 0; i < length; i++){\r\n            if(_address == certificateToOwner[i])\r\n            {\r\n                _certificates[i] = certificates[i];\r\n            }\r\n        }\r\n        return _certificates;\r\n    }\r\n\r\n    function  getOwnedCertificatesIds(address _address) public view returns (uint[] memory _ids) {\r\n        uint length = getCertificatesLength();\r\n        uint counter = 0;\r\n        for (uint i = 0; i < length; i++) {\r\n            if(_address == certificateToOwner[i])\r\n            {\r\n                counter++;\r\n            }\r\n        }\r\n        _ids = new uint[](counter);\r\n        for (uint i = 0; i < length; i++) {\r\n            if(_address == certificateToOwner[i])\r\n            {\r\n                _ids[i] = i;\r\n            }\r\n        }\r\n        return _ids;\r\n    }\r\n\r\n    function _generateRandomDna(string memory _str1, string memory _str2, string memory _str3) private view returns (uint _dna) {\r\n        uint rand1 = uint(keccak256(abi.encodePacked(_str1)));\r\n        uint rand2 = uint(keccak256(abi.encodePacked(_str2)));\r\n        uint rand3 = uint(keccak256(abi.encodePacked(_str3)));\r\n        return ((rand1 + rand2 - rand3) * rand3) % dnaModulus;\r\n    }\r\n}",
  "sourcePath": "D:\\GitHub\\LegoCertificationStore\\contracts\\LegoCertificationStore.sol",
  "compiler": {
    "name": "solc",
    "version": "0.5.2+commit.1df8f40c.Emscripten.clang"
  },
  "schemaVersion": "2.0.2",
  "updatedAt": "2019-05-19T09:36:13.478Z"
}