{
  "contractName": "LegoCertificationStore",
  "abi": [
    {
      "constant": true,
      "inputs": [
        {
          "name": "",
          "type": "uint256"
        }
      ],
      "name": "certificates",
      "outputs": [
        {
          "name": "name",
          "type": "string"
        },
        {
          "name": "number",
          "type": "string"
        },
        {
          "name": "theme",
          "type": "string"
        },
        {
          "name": "subtheme",
          "type": "string"
        },
        {
          "name": "descritpion",
          "type": "string"
        },
        {
          "name": "bricksJsonData",
          "type": "string"
        },
        {
          "name": "dna",
          "type": "uint256"
        }
      ],
      "payable": false,
      "stateMutability": "view",
      "type": "function"
    },
    {
      "constant": true,
      "inputs": [],
      "name": "dnaDigits",
      "outputs": [
        {
          "name": "",
          "type": "uint256"
        }
      ],
      "payable": false,
      "stateMutability": "view",
      "type": "function"
    },
    {
      "constant": false,
      "inputs": [],
      "name": "renounceOwnership",
      "outputs": [],
      "payable": false,
      "stateMutability": "nonpayable",
      "type": "function"
    },
    {
      "constant": true,
      "inputs": [],
      "name": "owner",
      "outputs": [
        {
          "name": "",
          "type": "address"
        }
      ],
      "payable": false,
      "stateMutability": "view",
      "type": "function"
    },
    {
      "constant": true,
      "inputs": [],
      "name": "isOwner",
      "outputs": [
        {
          "name": "",
          "type": "bool"
        }
      ],
      "payable": false,
      "stateMutability": "view",
      "type": "function"
    },
    {
      "constant": true,
      "inputs": [],
      "name": "dnaModulus",
      "outputs": [
        {
          "name": "",
          "type": "uint256"
        }
      ],
      "payable": false,
      "stateMutability": "view",
      "type": "function"
    },
    {
      "constant": false,
      "inputs": [
        {
          "name": "newOwner",
          "type": "address"
        }
      ],
      "name": "transferOwnership",
      "outputs": [],
      "payable": false,
      "stateMutability": "nonpayable",
      "type": "function"
    },
    {
      "inputs": [],
      "payable": false,
      "stateMutability": "nonpayable",
      "type": "constructor"
    },
    {
      "anonymous": false,
      "inputs": [
        {
          "indexed": false,
          "name": "certificateId",
          "type": "uint256"
        },
        {
          "indexed": false,
          "name": "name",
          "type": "string"
        },
        {
          "indexed": false,
          "name": "number",
          "type": "string"
        },
        {
          "indexed": false,
          "name": "theme",
          "type": "string"
        },
        {
          "indexed": false,
          "name": "subtheme",
          "type": "string"
        },
        {
          "indexed": false,
          "name": "descritpion",
          "type": "string"
        },
        {
          "indexed": false,
          "name": "bricksJsonData",
          "type": "string"
        },
        {
          "indexed": false,
          "name": "dna",
          "type": "uint256"
        }
      ],
      "name": "NewCertificate",
      "type": "event"
    },
    {
      "anonymous": false,
      "inputs": [
        {
          "indexed": true,
          "name": "previousOwner",
          "type": "address"
        },
        {
          "indexed": true,
          "name": "newOwner",
          "type": "address"
        }
      ],
      "name": "OwnershipTransferred",
      "type": "event"
    },
    {
      "constant": false,
      "inputs": [
        {
          "name": "_name",
          "type": "string"
        },
        {
          "name": "_number",
          "type": "string"
        },
        {
          "name": "_theme",
          "type": "string"
        },
        {
          "name": "_subtheme",
          "type": "string"
        },
        {
          "name": "_descritpion",
          "type": "string"
        },
        {
          "name": "_bricksJsonData",
          "type": "string"
        },
        {
          "name": "_bricks",
          "type": "string[]"
        },
        {
          "name": "_registers",
          "type": "string[]"
        }
      ],
      "name": "createNewCertificate",
      "outputs": [],
      "payable": false,
      "stateMutability": "nonpayable",
      "type": "function"
    },
    {
      "constant": true,
      "inputs": [
        {
          "name": "_address",
          "type": "address"
        }
      ],
      "name": "getOwnedCertificatesCountByAddress",
      "outputs": [
        {
          "name": "_count",
          "type": "uint256"
        }
      ],
      "payable": false,
      "stateMutability": "view",
      "type": "function"
    },
    {
      "constant": true,
      "inputs": [],
      "name": "getOwnedCertificatesCount",
      "outputs": [
        {
          "name": "_count",
          "type": "uint256"
        }
      ],
      "payable": false,
      "stateMutability": "view",
      "type": "function"
    },
    {
      "constant": true,
      "inputs": [],
      "name": "getCertificatesCount",
      "outputs": [
        {
          "name": "",
          "type": "uint256"
        }
      ],
      "payable": false,
      "stateMutability": "view",
      "type": "function"
    },
    {
      "constant": true,
      "inputs": [
        {
          "name": "_address",
          "type": "address"
        }
      ],
      "name": "getOwnedCertificates",
      "outputs": [
        {
          "components": [
            {
              "name": "name",
              "type": "string"
            },
            {
              "name": "number",
              "type": "string"
            },
            {
              "name": "theme",
              "type": "string"
            },
            {
              "name": "subtheme",
              "type": "string"
            },
            {
              "name": "descritpion",
              "type": "string"
            },
            {
              "name": "bricksJsonData",
              "type": "string"
            },
            {
              "name": "dna",
              "type": "uint256"
            }
          ],
          "name": "_certificates",
          "type": "tuple[]"
        }
      ],
      "payable": false,
      "stateMutability": "view",
      "type": "function"
    },
    {
      "constant": true,
      "inputs": [
        {
          "name": "_address",
          "type": "address"
        }
      ],
      "name": "getOwnedCertificatesIds",
      "outputs": [
        {
          "name": "_ids",
          "type": "uint256[]"
        }
      ],
      "payable": false,
      "stateMutability": "view",
      "type": "function"
    }
  ],
  "bytecode": "0x6080604052610100600455600160045460020a036005553480156200002357600080fd5b50336000806101000a81548173ffffffffffffffffffffffffffffffffffffffff021916908373ffffffffffffffffffffffffffffffffffffffff1602179055506000809054906101000a900473ffffffffffffffffffffffffffffffffffffffff1673ffffffffffffffffffffffffffffffffffffffff16600073ffffffffffffffffffffffffffffffffffffffff167f8be0079c531659141344cd1fd0a4f28419497f9722a3daafe3b4186f6b6457e060405160405180910390a36000600181620000f19190620000f8565b5062000237565b81548183558181111562000128576007028160070283600052602060002091820191016200012791906200012d565b5b505050565b620001c091905b80821115620001bc5760008082016000620001509190620001c3565b600182016000620001629190620001c3565b600282016000620001749190620001c3565b600382016000620001869190620001c3565b600482016000620001989190620001c3565b600582016000620001aa9190620001c3565b60068201600090555060070162000134565b5090565b90565b50805460018160011615610100020316600290046000825580601f10620001eb57506200020c565b601f0160209004906000526020600020908101906200020b91906200020f565b5b50565b6200023491905b808211156200023057600081600090555060010162000216565b5090565b90565b611e0680620002476000396000f3fe608060405234801561001057600080fd5b50600436106100ec576000357c0100000000000000000000000000000000000000000000000000000000900480638f32d59b116100a9578063daba071111610083578063daba071114610227578063dd4935ae14610245578063f1d24e4e14610261578063f2fde38b14610291576100ec565b80638f32d59b146101cd5780638fb03a02146101eb578063b1eda67314610209576100ec565b80630c3ceb2e146100f1578063495f497214610121578063663b3e2214610151578063692c662714610187578063715018a6146101a55780638da5cb5b146101af575b600080fd5b61010b600480360361010691908101906115f6565b6102ad565b6040516101189190611a4f565b60405180910390f35b61013b600480360361013691908101906115f6565b61039f565b6040516101489190611a2d565b60405180910390f35b61016b60048036036101669190810190611791565b610899565b60405161017e9796959493929190611a8c565b60405180910390f35b61018f610c7a565b60405161019c9190611b45565b60405180910390f35b6101ad610c80565b005b6101b7610d88565b6040516101c49190611a12565b60405180910390f35b6101d5610db1565b6040516101e29190611a71565b60405180910390f35b6101f3610e08565b6040516102009190611b45565b60405180910390f35b610211610e15565b60405161021e9190611b45565b60405180910390f35b61022f610e5c565b60405161023c9190611b45565b60405180910390f35b61025f600480360361025a919081019061161f565b610e62565b005b61027b600480360361027691908101906115f6565b610e8b565b6040516102889190611b45565b60405180910390f35b6102ab60048036036102a691908101906115f6565b610ed4565b005b606060006102b9610e08565b90506102c483610e8b565b6040519080825280602002602001820160405280156102f25781602001602082028038833980820191505090505b50915060008090505b81811015610395576002600082815260200190815260200160002060009054906101000a900473ffffffffffffffffffffffffffffffffffffffff1673ffffffffffffffffffffffffffffffffffffffff168473ffffffffffffffffffffffffffffffffffffffff1614156103885780838281518110151561037957fe5b90602001906020020181815250505b80806001019150506102fb565b5081915050919050565b606060006103ab610e08565b90506103b683610e8b565b6040519080825280602002602001820160405280156103ef57816020015b6103dc6113c9565b8152602001906001900390816103d45790505b50915060008090505b8181101561088f576002600082815260200190815260200160002060009054906101000a900473ffffffffffffffffffffffffffffffffffffffff1673ffffffffffffffffffffffffffffffffffffffff168473ffffffffffffffffffffffffffffffffffffffff1614156108825760018181548110151561047657fe5b906000526020600020906007020160e06040519081016040529081600082018054600181600116156101000203166002900480601f0160208091040260200160405190810160405280929190818152602001828054600181600116156101000203166002900480156105295780601f106104fe57610100808354040283529160200191610529565b820191906000526020600020905b81548152906001019060200180831161050c57829003601f168201915b50505050508152602001600182018054600181600116156101000203166002900480601f0160208091040260200160405190810160405280929190818152602001828054600181600116156101000203166002900480156105cb5780601f106105a0576101008083540402835291602001916105cb565b820191906000526020600020905b8154815290600101906020018083116105ae57829003601f168201915b50505050508152602001600282018054600181600116156101000203166002900480601f01602080910402602001604051908101604052809291908181526020018280546001816001161561010002031660029004801561066d5780601f106106425761010080835404028352916020019161066d565b820191906000526020600020905b81548152906001019060200180831161065057829003601f168201915b50505050508152602001600382018054600181600116156101000203166002900480601f01602080910402602001604051908101604052809291908181526020018280546001816001161561010002031660029004801561070f5780601f106106e45761010080835404028352916020019161070f565b820191906000526020600020905b8154815290600101906020018083116106f257829003601f168201915b50505050508152602001600482018054600181600116156101000203166002900480601f0160208091040260200160405190810160405280929190818152602001828054600181600116156101000203166002900480156107b15780601f10610786576101008083540402835291602001916107b1565b820191906000526020600020905b81548152906001019060200180831161079457829003601f168201915b50505050508152602001600582018054600181600116156101000203166002900480601f0160208091040260200160405190810160405280929190818152602001828054600181600116156101000203166002900480156108535780601f1061082857610100808354040283529160200191610853565b820191906000526020600020905b81548152906001019060200180831161083657829003601f168201915b50505050508152602001600682015481525050838281518110151561087457fe5b906020019060200201819052505b80806001019150506103f8565b5081915050919050565b6001818154811015156108a857fe5b9060005260206000209060070201600091509050806000018054600181600116156101000203166002900480601f0160208091040260200160405190810160405280929190818152602001828054600181600116156101000203166002900480156109545780601f1061092957610100808354040283529160200191610954565b820191906000526020600020905b81548152906001019060200180831161093757829003601f168201915b505050505090806001018054600181600116156101000203166002900480601f0160208091040260200160405190810160405280929190818152602001828054600181600116156101000203166002900480156109f25780601f106109c7576101008083540402835291602001916109f2565b820191906000526020600020905b8154815290600101906020018083116109d557829003601f168201915b505050505090806002018054600181600116156101000203166002900480601f016020809104026020016040519081016040528092919081815260200182805460018160011615610100020316600290048015610a905780601f10610a6557610100808354040283529160200191610a90565b820191906000526020600020905b815481529060010190602001808311610a7357829003601f168201915b505050505090806003018054600181600116156101000203166002900480601f016020809104026020016040519081016040528092919081815260200182805460018160011615610100020316600290048015610b2e5780601f10610b0357610100808354040283529160200191610b2e565b820191906000526020600020905b815481529060010190602001808311610b1157829003601f168201915b505050505090806004018054600181600116156101000203166002900480601f016020809104026020016040519081016040528092919081815260200182805460018160011615610100020316600290048015610bcc5780601f10610ba157610100808354040283529160200191610bcc565b820191906000526020600020905b815481529060010190602001808311610baf57829003601f168201915b505050505090806005018054600181600116156101000203166002900480601f016020809104026020016040519081016040528092919081815260200182805460018160011615610100020316600290048015610c6a5780601f10610c3f57610100808354040283529160200191610c6a565b820191906000526020600020905b815481529060010190602001808311610c4d57829003601f168201915b5050505050908060060154905087565b60045481565b610c88610db1565b1515610cc9576040517f08c379a0000000000000000000000000000000000000000000000000000000008152600401610cc090611b25565b60405180910390fd5b600073ffffffffffffffffffffffffffffffffffffffff166000809054906101000a900473ffffffffffffffffffffffffffffffffffffffff1673ffffffffffffffffffffffffffffffffffffffff167f8be0079c531659141344cd1fd0a4f28419497f9722a3daafe3b4186f6b6457e060405160405180910390a360008060006101000a81548173ffffffffffffffffffffffffffffffffffffffff021916908373ffffffffffffffffffffffffffffffffffffffff160217905550565b60008060009054906101000a900473ffffffffffffffffffffffffffffffffffffffff16905090565b60008060009054906101000a900473ffffffffffffffffffffffffffffffffffffffff1673ffffffffffffffffffffffffffffffffffffffff163373ffffffffffffffffffffffffffffffffffffffff1614905090565b6000600180549050905090565b6000600360003373ffffffffffffffffffffffffffffffffffffffff1673ffffffffffffffffffffffffffffffffffffffff16815260200190815260200160002054905090565b60055481565b6000610e6f898686610f29565b9050610e80898989898989876110be565b505050505050505050565b6000600360008373ffffffffffffffffffffffffffffffffffffffff1673ffffffffffffffffffffffffffffffffffffffff168152602001908152602001600020549050919050565b610edc610db1565b1515610f1d576040517f08c379a0000000000000000000000000000000000000000000000000000000008152600401610f1490611b25565b60405180910390fd5b610f26816112cf565b50565b600080846040516020018082805190602001908083835b602083101515610f655780518252602082019150602081019050602083039250610f40565b6001836020036101000a038019825116818451168082178552505050505050905001915050604051602081830303815290604052805190602001206001900490506000846040516020018082805190602001908083835b602083101515610fe15780518252602082019150602081019050602083039250610fbc565b6001836020036101000a038019825116818451168082178552505050505050905001915050604051602081830303815290604052805190602001206001900490506000846040516020018082805190602001908083835b60208310151561105d5780518252602082019150602081019050602083039250611038565b6001836020036101000a03801982511681845116808217855250505050505090500191505060405160208183030381529060405280519060200120600190049050600554818284860103028115156110b157fe5b0693505050509392505050565b600060018060e0604051908101604052808b81526020018a81526020018981526020018881526020018781526020018681526020018581525090806001815401808255809150509060018203906000526020600020906007020160009091929091909150600082015181600001908051906020019061113e929190611407565b50602082015181600101908051906020019061115b929190611407565b506040820151816002019080519060200190611178929190611407565b506060820151816003019080519060200190611195929190611407565b5060808201518160040190805190602001906111b2929190611407565b5060a08201518160050190805190602001906111cf929190611407565b5060c082015181600601555050039050336002600083815260200190815260200160002060006101000a81548173ffffffffffffffffffffffffffffffffffffffff021916908373ffffffffffffffffffffffffffffffffffffffff160217905550600360003373ffffffffffffffffffffffffffffffffffffffff1673ffffffffffffffffffffffffffffffffffffffff168152602001908152602001600020600081548092919060010191905055507f2103c40b1f5e714ab7ed53d7379f1ebf74e43d5e417af90f6dab9fb8b5c3e21e81898989898989896040516112bd989796959493929190611b60565b60405180910390a15050505050505050565b600073ffffffffffffffffffffffffffffffffffffffff168173ffffffffffffffffffffffffffffffffffffffff161415151561130b57600080fd5b8073ffffffffffffffffffffffffffffffffffffffff166000809054906101000a900473ffffffffffffffffffffffffffffffffffffffff1673ffffffffffffffffffffffffffffffffffffffff167f8be0079c531659141344cd1fd0a4f28419497f9722a3daafe3b4186f6b6457e060405160405180910390a3806000806101000a81548173ffffffffffffffffffffffffffffffffffffffff021916908373ffffffffffffffffffffffffffffffffffffffff16021790555050565b60e060405190810160405280606081526020016060815260200160608152602001606081526020016060815260200160608152602001600081525090565b828054600181600116156101000203166002900490600052602060002090601f016020900481019282601f1061144857805160ff1916838001178555611476565b82800160010185558215611476579182015b8281111561147557825182559160200191906001019061145a565b5b5090506114839190611487565b5090565b6114a991905b808211156114a557600081600090555060010161148d565b5090565b90565b60006114b88235611d5d565b905092915050565b600082601f83011215156114d357600080fd5b81356114e66114e182611c35565b611c08565b9150818183526020840193506020810190508360005b8381101561152c57813586016115128882611536565b8452602084019350602083019250506001810190506114fc565b5050505092915050565b600082601f830112151561154957600080fd5b813561155c61155782611c5d565b611c08565b9150808252602083016020830185838301111561157857600080fd5b611583838284611d79565b50505092915050565b600082601f830112151561159f57600080fd5b81356115b26115ad82611c89565b611c08565b915080825260208301602083018583830111156115ce57600080fd5b6115d9838284611d79565b50505092915050565b60006115ee8235611d6f565b905092915050565b60006020828403121561160857600080fd5b6000611616848285016114ac565b91505092915050565b600080600080600080600080610100898b03121561163c57600080fd5b600089013567ffffffffffffffff81111561165657600080fd5b6116628b828c0161158c565b985050602089013567ffffffffffffffff81111561167f57600080fd5b61168b8b828c0161158c565b975050604089013567ffffffffffffffff8111156116a857600080fd5b6116b48b828c0161158c565b965050606089013567ffffffffffffffff8111156116d157600080fd5b6116dd8b828c0161158c565b955050608089013567ffffffffffffffff8111156116fa57600080fd5b6117068b828c0161158c565b94505060a089013567ffffffffffffffff81111561172357600080fd5b61172f8b828c0161158c565b93505060c089013567ffffffffffffffff81111561174c57600080fd5b6117588b828c016114c0565b92505060e089013567ffffffffffffffff81111561177557600080fd5b6117818b828c016114c0565b9150509295985092959890939650565b6000602082840312156117a357600080fd5b60006117b1848285016115e2565b91505092915050565b6117c381611d15565b82525050565b60006117d482611ccf565b808452602084019350836020820285016117ed85611cb5565b60005b84811015611826578383038852611808838351611944565b925061181382611cfb565b91506020880197506001810190506117f0565b508196508694505050505092915050565b600061184282611cda565b80845260208401935061185483611cc2565b60005b828110156118865761186a868351611a03565b61187382611d08565b9150602086019550600181019050611857565b50849250505092915050565b61189b81611d27565b82525050565b60006118ac82611cf0565b8084526118c0816020860160208601611d88565b6118c981611dbb565b602085010191505092915050565b60006118e282611ce5565b8084526118f6816020860160208601611d88565b6118ff81611dbb565b602085010191505092915050565b6000601f82527f4f6e6c79206f776e65722063616e2063616c6c2074686973206d6574686f64006020830152604082019050919050565b600060e083016000830151848203600086015261196182826118d7565b9150506020830151848203602086015261197b82826118d7565b9150506040830151848203604086015261199582826118d7565b915050606083015184820360608601526119af82826118d7565b915050608083015184820360808601526119c982826118d7565b91505060a083015184820360a08601526119e382826118d7565b91505060c08301516119f860c0860182611a03565b508091505092915050565b611a0c81611d53565b82525050565b6000602082019050611a2760008301846117ba565b92915050565b60006020820190508181036000830152611a4781846117c9565b905092915050565b60006020820190508181036000830152611a698184611837565b905092915050565b6000602082019050611a866000830184611892565b92915050565b600060e0820190508181036000830152611aa6818a6118d7565b90508181036020830152611aba81896118d7565b90508181036040830152611ace81886118d7565b90508181036060830152611ae281876118d7565b90508181036080830152611af681866118d7565b905081810360a0830152611b0a81856118d7565b9050611b1960c0830184611a03565b98975050505050505050565b60006020820190508181036000830152611b3e8161190d565b9050919050565b6000602082019050611b5a6000830184611a03565b92915050565b600061010082019050611b76600083018b611a03565b8181036020830152611b88818a6118a1565b90508181036040830152611b9c81896118a1565b90508181036060830152611bb081886118a1565b90508181036080830152611bc481876118a1565b905081810360a0830152611bd881866118a1565b905081810360c0830152611bec81856118a1565b9050611bfb60e0830184611a03565b9998505050505050505050565b6000604051905081810181811067ffffffffffffffff82111715611c2b57600080fd5b8060405250919050565b600067ffffffffffffffff821115611c4c57600080fd5b602082029050602081019050919050565b600067ffffffffffffffff821115611c7457600080fd5b601f19601f8301169050602081019050919050565b600067ffffffffffffffff821115611ca057600080fd5b601f19601f8301169050602081019050919050565b6000602082019050919050565b6000602082019050919050565b600081519050919050565b600081519050919050565b600081519050919050565b600081519050919050565b6000602082019050919050565b6000602082019050919050565b6000611d2082611d33565b9050919050565b60008115159050919050565b600073ffffffffffffffffffffffffffffffffffffffff82169050919050565b6000819050919050565b6000611d6882611d33565b9050919050565b6000819050919050565b82818337600083830152505050565b60005b83811015611da6578082015181840152602081019050611d8b565b83811115611db5576000848401525b50505050565b6000601f19601f830116905091905056fea265627a7a72305820e63ab93f697872e6be95c77a86bc6d0c39c920f6bf1776292d417d03fc35883a6c6578706572696d656e74616cf50037",
  "source": "pragma solidity ^0.5.2;\r\npragma experimental ABIEncoderV2;\r\n\r\nimport \"openzeppelin-solidity/contracts/ownership/Ownable.sol\";\r\nimport \"openzeppelin-solidity/contracts/math/SafeMath.sol\";\r\n\r\ncontract LegoCertificationStore is Ownable {\r\n    using SafeMath for uint256;\r\n\r\n    struct LegoCertificate {\r\n        string name;\r\n        string number;\r\n        string theme;\r\n        string subtheme;\r\n        string descritpion;\r\n        string bricksJsonData;\r\n        uint dna;\r\n    }\r\n\r\n    event NewCertificate(uint certificateId, string name, string number,\r\n        string theme, string subtheme, string descritpion, string bricksJsonData, uint dna);\r\n\r\n    LegoCertificate[] public certificates;\r\n\r\n    mapping (uint => address) private certificateToOwner;\r\n    mapping (address => uint) private ownedCertificatesCount;\r\n\r\n    uint public dnaDigits = 256;\r\n    uint public dnaModulus = (2 ** dnaDigits) - 1;\r\n\r\n    constructor() Ownable() public {\r\n        certificates.length = 0;\r\n    }\r\n\r\n    //\"gdsfgdsfg\",\"gdsfgdsfg\",\"gdsfgdsfg\",\"gdsfgdsfg\",\"gdsfgdsfg\",\"gdsfgdsfg\",[\"gdsfgdsfg\"],[\"gdsfgdsfg\"]\r\n\r\n    function createNewCertificate(string memory _name,\r\n        string memory  _number,\r\n        string memory _theme,\r\n        string memory _subtheme,\r\n        string memory _descritpion,\r\n        string memory _bricksJsonData,\r\n        string[] memory _bricks,\r\n        string[] memory _registers) public {\r\n        // IF dnaModulus == (2 ** dnaDigits) - 1; DOES NOT CUT THE NUMBER\r\n        uint randDna = _generateRandomDna(_name, _descritpion, _bricksJsonData);\r\n        _createCertificate(_name, _number, _theme, _subtheme, _descritpion, _bricksJsonData, randDna);\r\n    }\r\n\r\n    function _createCertificate(string memory _name,\r\n        string memory _number,\r\n        string memory _theme,\r\n        string memory _subtheme,\r\n        string memory _descritpion,\r\n        string memory _bricksJsonData,\r\n        uint _dna) internal {\r\n        uint id = certificates.push(LegoCertificate(_name, _number, _theme, _subtheme, _descritpion, _bricksJsonData, _dna)) - 1;\r\n        certificateToOwner[id] = msg.sender;\r\n        ownedCertificatesCount[msg.sender]++;\r\n        emit NewCertificate(id, _name, _number, _theme, _subtheme, _descritpion, _bricksJsonData, _dna);\r\n    }\r\n\r\n    function getOwnedCertificatesCountByAddress(address _address) public view returns (uint _count) {\r\n        return ownedCertificatesCount[_address];\r\n    }\r\n\r\n    function getOwnedCertificatesCount() public view returns (uint _count) {\r\n        return ownedCertificatesCount[msg.sender];\r\n    }\r\n\r\n    function getCertificatesCount() public view returns(uint){\r\n        return certificates.length;\r\n    }\r\n\r\n    function  getOwnedCertificates(address _address) public view returns (LegoCertificate[] memory _certificates) {\r\n        uint length = getCertificatesCount();\r\n        _certificates = new LegoCertificate[](getOwnedCertificatesCountByAddress(_address));\r\n        for(uint i = 0; i < length; i++){\r\n            if(_address == certificateToOwner[i])\r\n            {\r\n                _certificates[i] = certificates[i];\r\n            }\r\n        }\r\n        return _certificates;\r\n    }\r\n\r\n    function  getOwnedCertificatesIds(address _address) public view returns (uint[] memory _ids) {\r\n        uint length = getCertificatesCount();\r\n        _ids = new uint[](getOwnedCertificatesCountByAddress(_address));\r\n        for (uint i = 0; i < length; i++) {\r\n            if(_address == certificateToOwner[i])\r\n            {\r\n                _ids[i] = i;\r\n            }\r\n        }\r\n        return _ids;\r\n    }\r\n\r\n    function _generateRandomDna(string memory _str1, string memory _str2, string memory _str3) private view returns (uint _dna) {\r\n        uint rand1 = uint(keccak256(abi.encodePacked(_str1)));\r\n        uint rand2 = uint(keccak256(abi.encodePacked(_str2)));\r\n        uint rand3 = uint(keccak256(abi.encodePacked(_str3)));\r\n        return ((rand1 + rand2 - rand3) * rand3) % dnaModulus;\r\n    }\r\n}",
  "sourcePath": "D:\\GitHub\\LegoCertificationStore\\contracts\\LegoCertificationStore.sol",
  "compiler": {
    "name": "solc",
    "version": "0.5.2+commit.1df8f40c.Emscripten.clang"
  },
  "schemaVersion": "2.0.2",
  "updatedAt": "2019-05-19T19:55:58.613Z"
}