{
  "contractName": "LegoCertificationStore",
  "abi": [
    {
      "constant": true,
      "inputs": [
        {
          "name": "",
          "type": "uint256"
        }
      ],
      "name": "certificates",
      "outputs": [
        {
          "name": "name",
          "type": "string"
        },
        {
          "name": "number",
          "type": "string"
        },
        {
          "name": "theme",
          "type": "string"
        },
        {
          "name": "subtheme",
          "type": "string"
        },
        {
          "name": "descritpion",
          "type": "string"
        },
        {
          "name": "bricksJsonData",
          "type": "string"
        },
        {
          "name": "dna",
          "type": "uint256"
        }
      ],
      "payable": false,
      "stateMutability": "view",
      "type": "function"
    },
    {
      "constant": true,
      "inputs": [],
      "name": "dnaDigits",
      "outputs": [
        {
          "name": "",
          "type": "uint256"
        }
      ],
      "payable": false,
      "stateMutability": "view",
      "type": "function"
    },
    {
      "constant": false,
      "inputs": [],
      "name": "renounceOwnership",
      "outputs": [],
      "payable": false,
      "stateMutability": "nonpayable",
      "type": "function"
    },
    {
      "constant": true,
      "inputs": [],
      "name": "owner",
      "outputs": [
        {
          "name": "",
          "type": "address"
        }
      ],
      "payable": false,
      "stateMutability": "view",
      "type": "function"
    },
    {
      "constant": true,
      "inputs": [],
      "name": "isOwner",
      "outputs": [
        {
          "name": "",
          "type": "bool"
        }
      ],
      "payable": false,
      "stateMutability": "view",
      "type": "function"
    },
    {
      "constant": true,
      "inputs": [],
      "name": "dnaModulus",
      "outputs": [
        {
          "name": "",
          "type": "uint256"
        }
      ],
      "payable": false,
      "stateMutability": "view",
      "type": "function"
    },
    {
      "constant": false,
      "inputs": [
        {
          "name": "newOwner",
          "type": "address"
        }
      ],
      "name": "transferOwnership",
      "outputs": [],
      "payable": false,
      "stateMutability": "nonpayable",
      "type": "function"
    },
    {
      "inputs": [],
      "payable": false,
      "stateMutability": "nonpayable",
      "type": "constructor"
    },
    {
      "anonymous": false,
      "inputs": [
        {
          "indexed": false,
          "name": "certificateId",
          "type": "uint256"
        },
        {
          "indexed": false,
          "name": "name",
          "type": "string"
        },
        {
          "indexed": false,
          "name": "number",
          "type": "string"
        },
        {
          "indexed": false,
          "name": "theme",
          "type": "string"
        },
        {
          "indexed": false,
          "name": "subtheme",
          "type": "string"
        },
        {
          "indexed": false,
          "name": "descritpion",
          "type": "string"
        },
        {
          "indexed": false,
          "name": "bricksJsonData",
          "type": "string"
        },
        {
          "indexed": false,
          "name": "dna",
          "type": "uint256"
        }
      ],
      "name": "NewCertificate",
      "type": "event"
    },
    {
      "anonymous": false,
      "inputs": [
        {
          "indexed": true,
          "name": "previousOwner",
          "type": "address"
        },
        {
          "indexed": true,
          "name": "newOwner",
          "type": "address"
        }
      ],
      "name": "OwnershipTransferred",
      "type": "event"
    },
    {
      "constant": false,
      "inputs": [
        {
          "name": "_name",
          "type": "string"
        },
        {
          "name": "_number",
          "type": "string"
        },
        {
          "name": "_theme",
          "type": "string"
        },
        {
          "name": "_subtheme",
          "type": "string"
        },
        {
          "name": "_descritpion",
          "type": "string"
        },
        {
          "name": "_bricksJsonData",
          "type": "string"
        },
        {
          "name": "_bricks",
          "type": "string[]"
        },
        {
          "name": "_registers",
          "type": "string[]"
        }
      ],
      "name": "createNewCertificate",
      "outputs": [],
      "payable": false,
      "stateMutability": "nonpayable",
      "type": "function"
    },
    {
      "constant": true,
      "inputs": [
        {
          "name": "_address",
          "type": "address"
        }
      ],
      "name": "getOwnedCertificatesCountByAddress",
      "outputs": [
        {
          "name": "_count",
          "type": "uint256"
        }
      ],
      "payable": false,
      "stateMutability": "view",
      "type": "function"
    },
    {
      "constant": true,
      "inputs": [],
      "name": "getOwnedCertificatesCount",
      "outputs": [
        {
          "name": "_count",
          "type": "uint256"
        }
      ],
      "payable": false,
      "stateMutability": "view",
      "type": "function"
    },
    {
      "constant": true,
      "inputs": [],
      "name": "getCertificatesCount",
      "outputs": [
        {
          "name": "",
          "type": "uint256"
        }
      ],
      "payable": false,
      "stateMutability": "view",
      "type": "function"
    },
    {
      "constant": true,
      "inputs": [
        {
          "name": "_address",
          "type": "address"
        }
      ],
      "name": "getOwnedCertificates",
      "outputs": [
        {
          "components": [
            {
              "name": "name",
              "type": "string"
            },
            {
              "name": "number",
              "type": "string"
            },
            {
              "name": "theme",
              "type": "string"
            },
            {
              "name": "subtheme",
              "type": "string"
            },
            {
              "name": "descritpion",
              "type": "string"
            },
            {
              "name": "bricksJsonData",
              "type": "string"
            },
            {
              "name": "dna",
              "type": "uint256"
            }
          ],
          "name": "_certificates",
          "type": "tuple[]"
        }
      ],
      "payable": false,
      "stateMutability": "view",
      "type": "function"
    },
    {
      "constant": true,
      "inputs": [
        {
          "name": "_address",
          "type": "address"
        }
      ],
      "name": "getOwnedCertificatesIds",
      "outputs": [
        {
          "name": "_ids",
          "type": "uint256[]"
        }
      ],
      "payable": false,
      "stateMutability": "view",
      "type": "function"
    }
  ],
  "bytecode": "0x6080604052610100600455600160045460020a036005553480156200002357600080fd5b50336000806101000a81548173ffffffffffffffffffffffffffffffffffffffff021916908373ffffffffffffffffffffffffffffffffffffffff1602179055506000809054906101000a900473ffffffffffffffffffffffffffffffffffffffff1673ffffffffffffffffffffffffffffffffffffffff16600073ffffffffffffffffffffffffffffffffffffffff167f8be0079c531659141344cd1fd0a4f28419497f9722a3daafe3b4186f6b6457e060405160405180910390a36000600181620000f19190620000f8565b5062000237565b81548183558181111562000128576007028160070283600052602060002091820191016200012791906200012d565b5b505050565b620001c091905b80821115620001bc5760008082016000620001509190620001c3565b600182016000620001629190620001c3565b600282016000620001749190620001c3565b600382016000620001869190620001c3565b600482016000620001989190620001c3565b600582016000620001aa9190620001c3565b60068201600090555060070162000134565b5090565b90565b50805460018160011615610100020316600290046000825580601f10620001eb57506200020c565b601f0160209004906000526020600020908101906200020b91906200020f565b5b50565b6200023491905b808211156200023057600081600090555060010162000216565b5090565b90565b611d4380620002476000396000f3fe608060405234801561001057600080fd5b50600436106100ec576000357c0100000000000000000000000000000000000000000000000000000000900480638f32d59b116100a9578063daba071111610083578063daba071114610227578063dd4935ae14610245578063f1d24e4e14610261578063f2fde38b14610291576100ec565b80638f32d59b146101cd5780638fb03a02146101eb578063b1eda67314610209576100ec565b80630c3ceb2e146100f1578063495f497214610121578063663b3e2214610151578063692c662714610187578063715018a6146101a55780638da5cb5b146101af575b600080fd5b61010b6004803603610106919081019061158a565b6102ad565b60405161011891906119ac565b60405180910390f35b61013b6004803603610136919081019061158a565b61039f565b604051610148919061198a565b60405180910390f35b61016b60048036036101669190810190611725565b610899565b60405161017e97969594939291906119e9565b60405180910390f35b61018f610c7a565b60405161019c9190611a82565b60405180910390f35b6101ad610c80565b005b6101b7610d52565b6040516101c4919061196f565b60405180910390f35b6101d5610d7b565b6040516101e291906119ce565b60405180910390f35b6101f3610dd2565b6040516102009190611a82565b60405180910390f35b610211610ddf565b60405161021e9190611a82565b60405180910390f35b61022f610e26565b60405161023c9190611a82565b60405180910390f35b61025f600480360361025a91908101906115b3565b610e2c565b005b61027b6004803603610276919081019061158a565b610e55565b6040516102889190611a82565b60405180910390f35b6102ab60048036036102a6919081019061158a565b610e9e565b005b606060006102b9610dd2565b90506102c483610e55565b6040519080825280602002602001820160405280156102f25781602001602082028038833980820191505090505b50915060008090505b81811015610395576002600082815260200190815260200160002060009054906101000a900473ffffffffffffffffffffffffffffffffffffffff1673ffffffffffffffffffffffffffffffffffffffff168473ffffffffffffffffffffffffffffffffffffffff1614156103885780838281518110151561037957fe5b90602001906020020181815250505b80806001019150506102fb565b5081915050919050565b606060006103ab610dd2565b90506103b683610e55565b6040519080825280602002602001820160405280156103ef57816020015b6103dc61135d565b8152602001906001900390816103d45790505b50915060008090505b8181101561088f576002600082815260200190815260200160002060009054906101000a900473ffffffffffffffffffffffffffffffffffffffff1673ffffffffffffffffffffffffffffffffffffffff168473ffffffffffffffffffffffffffffffffffffffff1614156108825760018181548110151561047657fe5b906000526020600020906007020160e06040519081016040529081600082018054600181600116156101000203166002900480601f0160208091040260200160405190810160405280929190818152602001828054600181600116156101000203166002900480156105295780601f106104fe57610100808354040283529160200191610529565b820191906000526020600020905b81548152906001019060200180831161050c57829003601f168201915b50505050508152602001600182018054600181600116156101000203166002900480601f0160208091040260200160405190810160405280929190818152602001828054600181600116156101000203166002900480156105cb5780601f106105a0576101008083540402835291602001916105cb565b820191906000526020600020905b8154815290600101906020018083116105ae57829003601f168201915b50505050508152602001600282018054600181600116156101000203166002900480601f01602080910402602001604051908101604052809291908181526020018280546001816001161561010002031660029004801561066d5780601f106106425761010080835404028352916020019161066d565b820191906000526020600020905b81548152906001019060200180831161065057829003601f168201915b50505050508152602001600382018054600181600116156101000203166002900480601f01602080910402602001604051908101604052809291908181526020018280546001816001161561010002031660029004801561070f5780601f106106e45761010080835404028352916020019161070f565b820191906000526020600020905b8154815290600101906020018083116106f257829003601f168201915b50505050508152602001600482018054600181600116156101000203166002900480601f0160208091040260200160405190810160405280929190818152602001828054600181600116156101000203166002900480156107b15780601f10610786576101008083540402835291602001916107b1565b820191906000526020600020905b81548152906001019060200180831161079457829003601f168201915b50505050508152602001600582018054600181600116156101000203166002900480601f0160208091040260200160405190810160405280929190818152602001828054600181600116156101000203166002900480156108535780601f1061082857610100808354040283529160200191610853565b820191906000526020600020905b81548152906001019060200180831161083657829003601f168201915b50505050508152602001600682015481525050838281518110151561087457fe5b906020019060200201819052505b80806001019150506103f8565b5081915050919050565b6001818154811015156108a857fe5b9060005260206000209060070201600091509050806000018054600181600116156101000203166002900480601f0160208091040260200160405190810160405280929190818152602001828054600181600116156101000203166002900480156109545780601f1061092957610100808354040283529160200191610954565b820191906000526020600020905b81548152906001019060200180831161093757829003601f168201915b505050505090806001018054600181600116156101000203166002900480601f0160208091040260200160405190810160405280929190818152602001828054600181600116156101000203166002900480156109f25780601f106109c7576101008083540402835291602001916109f2565b820191906000526020600020905b8154815290600101906020018083116109d557829003601f168201915b505050505090806002018054600181600116156101000203166002900480601f016020809104026020016040519081016040528092919081815260200182805460018160011615610100020316600290048015610a905780601f10610a6557610100808354040283529160200191610a90565b820191906000526020600020905b815481529060010190602001808311610a7357829003601f168201915b505050505090806003018054600181600116156101000203166002900480601f016020809104026020016040519081016040528092919081815260200182805460018160011615610100020316600290048015610b2e5780601f10610b0357610100808354040283529160200191610b2e565b820191906000526020600020905b815481529060010190602001808311610b1157829003601f168201915b505050505090806004018054600181600116156101000203166002900480601f016020809104026020016040519081016040528092919081815260200182805460018160011615610100020316600290048015610bcc5780601f10610ba157610100808354040283529160200191610bcc565b820191906000526020600020905b815481529060010190602001808311610baf57829003601f168201915b505050505090806005018054600181600116156101000203166002900480601f016020809104026020016040519081016040528092919081815260200182805460018160011615610100020316600290048015610c6a5780601f10610c3f57610100808354040283529160200191610c6a565b820191906000526020600020905b815481529060010190602001808311610c4d57829003601f168201915b5050505050908060060154905087565b60045481565b610c88610d7b565b1515610c9357600080fd5b600073ffffffffffffffffffffffffffffffffffffffff166000809054906101000a900473ffffffffffffffffffffffffffffffffffffffff1673ffffffffffffffffffffffffffffffffffffffff167f8be0079c531659141344cd1fd0a4f28419497f9722a3daafe3b4186f6b6457e060405160405180910390a360008060006101000a81548173ffffffffffffffffffffffffffffffffffffffff021916908373ffffffffffffffffffffffffffffffffffffffff160217905550565b60008060009054906101000a900473ffffffffffffffffffffffffffffffffffffffff16905090565b60008060009054906101000a900473ffffffffffffffffffffffffffffffffffffffff1673ffffffffffffffffffffffffffffffffffffffff163373ffffffffffffffffffffffffffffffffffffffff1614905090565b6000600180549050905090565b6000600360003373ffffffffffffffffffffffffffffffffffffffff1673ffffffffffffffffffffffffffffffffffffffff16815260200190815260200160002054905090565b60055481565b6000610e39898686610ebd565b9050610e4a89898989898987611052565b505050505050505050565b6000600360008373ffffffffffffffffffffffffffffffffffffffff1673ffffffffffffffffffffffffffffffffffffffff168152602001908152602001600020549050919050565b610ea6610d7b565b1515610eb157600080fd5b610eba81611263565b50565b600080846040516020018082805190602001908083835b602083101515610ef95780518252602082019150602081019050602083039250610ed4565b6001836020036101000a038019825116818451168082178552505050505050905001915050604051602081830303815290604052805190602001206001900490506000846040516020018082805190602001908083835b602083101515610f755780518252602082019150602081019050602083039250610f50565b6001836020036101000a038019825116818451168082178552505050505050905001915050604051602081830303815290604052805190602001206001900490506000846040516020018082805190602001908083835b602083101515610ff15780518252602082019150602081019050602083039250610fcc565b6001836020036101000a038019825116818451168082178552505050505050905001915050604051602081830303815290604052805190602001206001900490506005548182848601030281151561104557fe5b0693505050509392505050565b600060018060e0604051908101604052808b81526020018a8152602001898152602001888152602001878152602001868152602001858152509080600181540180825580915050906001820390600052602060002090600702016000909192909190915060008201518160000190805190602001906110d292919061139b565b5060208201518160010190805190602001906110ef92919061139b565b50604082015181600201908051906020019061110c92919061139b565b50606082015181600301908051906020019061112992919061139b565b50608082015181600401908051906020019061114692919061139b565b5060a082015181600501908051906020019061116392919061139b565b5060c082015181600601555050039050336002600083815260200190815260200160002060006101000a81548173ffffffffffffffffffffffffffffffffffffffff021916908373ffffffffffffffffffffffffffffffffffffffff160217905550600360003373ffffffffffffffffffffffffffffffffffffffff1673ffffffffffffffffffffffffffffffffffffffff168152602001908152602001600020600081548092919060010191905055507f2103c40b1f5e714ab7ed53d7379f1ebf74e43d5e417af90f6dab9fb8b5c3e21e8189898989898989604051611251989796959493929190611a9d565b60405180910390a15050505050505050565b600073ffffffffffffffffffffffffffffffffffffffff168173ffffffffffffffffffffffffffffffffffffffff161415151561129f57600080fd5b8073ffffffffffffffffffffffffffffffffffffffff166000809054906101000a900473ffffffffffffffffffffffffffffffffffffffff1673ffffffffffffffffffffffffffffffffffffffff167f8be0079c531659141344cd1fd0a4f28419497f9722a3daafe3b4186f6b6457e060405160405180910390a3806000806101000a81548173ffffffffffffffffffffffffffffffffffffffff021916908373ffffffffffffffffffffffffffffffffffffffff16021790555050565b60e060405190810160405280606081526020016060815260200160608152602001606081526020016060815260200160608152602001600081525090565b828054600181600116156101000203166002900490600052602060002090601f016020900481019282601f106113dc57805160ff191683800117855561140a565b8280016001018555821561140a579182015b828111156114095782518255916020019190600101906113ee565b5b509050611417919061141b565b5090565b61143d91905b80821115611439576000816000905550600101611421565b5090565b90565b600061144c8235611c9a565b905092915050565b600082601f830112151561146757600080fd5b813561147a61147582611b72565b611b45565b9150818183526020840193506020810190508360005b838110156114c057813586016114a688826114ca565b845260208401935060208301925050600181019050611490565b5050505092915050565b600082601f83011215156114dd57600080fd5b81356114f06114eb82611b9a565b611b45565b9150808252602083016020830185838301111561150c57600080fd5b611517838284611cb6565b50505092915050565b600082601f830112151561153357600080fd5b813561154661154182611bc6565b611b45565b9150808252602083016020830185838301111561156257600080fd5b61156d838284611cb6565b50505092915050565b60006115828235611cac565b905092915050565b60006020828403121561159c57600080fd5b60006115aa84828501611440565b91505092915050565b600080600080600080600080610100898b0312156115d057600080fd5b600089013567ffffffffffffffff8111156115ea57600080fd5b6115f68b828c01611520565b985050602089013567ffffffffffffffff81111561161357600080fd5b61161f8b828c01611520565b975050604089013567ffffffffffffffff81111561163c57600080fd5b6116488b828c01611520565b965050606089013567ffffffffffffffff81111561166557600080fd5b6116718b828c01611520565b955050608089013567ffffffffffffffff81111561168e57600080fd5b61169a8b828c01611520565b94505060a089013567ffffffffffffffff8111156116b757600080fd5b6116c38b828c01611520565b93505060c089013567ffffffffffffffff8111156116e057600080fd5b6116ec8b828c01611454565b92505060e089013567ffffffffffffffff81111561170957600080fd5b6117158b828c01611454565b9150509295985092959890939650565b60006020828403121561173757600080fd5b600061174584828501611576565b91505092915050565b61175781611c52565b82525050565b600061176882611c0c565b8084526020840193508360208202850161178185611bf2565b60005b848110156117ba57838303885261179c8383516118a1565b92506117a782611c38565b9150602088019750600181019050611784565b508196508694505050505092915050565b60006117d682611c17565b8084526020840193506117e883611bff565b60005b8281101561181a576117fe868351611960565b61180782611c45565b91506020860195506001810190506117eb565b50849250505092915050565b61182f81611c64565b82525050565b600061184082611c2d565b808452611854816020860160208601611cc5565b61185d81611cf8565b602085010191505092915050565b600061187682611c22565b80845261188a816020860160208601611cc5565b61189381611cf8565b602085010191505092915050565b600060e08301600083015184820360008601526118be828261186b565b915050602083015184820360208601526118d8828261186b565b915050604083015184820360408601526118f2828261186b565b9150506060830151848203606086015261190c828261186b565b91505060808301518482036080860152611926828261186b565b91505060a083015184820360a0860152611940828261186b565b91505060c083015161195560c0860182611960565b508091505092915050565b61196981611c90565b82525050565b6000602082019050611984600083018461174e565b92915050565b600060208201905081810360008301526119a4818461175d565b905092915050565b600060208201905081810360008301526119c681846117cb565b905092915050565b60006020820190506119e36000830184611826565b92915050565b600060e0820190508181036000830152611a03818a61186b565b90508181036020830152611a17818961186b565b90508181036040830152611a2b818861186b565b90508181036060830152611a3f818761186b565b90508181036080830152611a53818661186b565b905081810360a0830152611a67818561186b565b9050611a7660c0830184611960565b98975050505050505050565b6000602082019050611a976000830184611960565b92915050565b600061010082019050611ab3600083018b611960565b8181036020830152611ac5818a611835565b90508181036040830152611ad98189611835565b90508181036060830152611aed8188611835565b90508181036080830152611b018187611835565b905081810360a0830152611b158186611835565b905081810360c0830152611b298185611835565b9050611b3860e0830184611960565b9998505050505050505050565b6000604051905081810181811067ffffffffffffffff82111715611b6857600080fd5b8060405250919050565b600067ffffffffffffffff821115611b8957600080fd5b602082029050602081019050919050565b600067ffffffffffffffff821115611bb157600080fd5b601f19601f8301169050602081019050919050565b600067ffffffffffffffff821115611bdd57600080fd5b601f19601f8301169050602081019050919050565b6000602082019050919050565b6000602082019050919050565b600081519050919050565b600081519050919050565b600081519050919050565b600081519050919050565b6000602082019050919050565b6000602082019050919050565b6000611c5d82611c70565b9050919050565b60008115159050919050565b600073ffffffffffffffffffffffffffffffffffffffff82169050919050565b6000819050919050565b6000611ca582611c70565b9050919050565b6000819050919050565b82818337600083830152505050565b60005b83811015611ce3578082015181840152602081019050611cc8565b83811115611cf2576000848401525b50505050565b6000601f19601f830116905091905056fea265627a7a7230582060dd489f25f08b4353774bfe7e8f13a3dc0e906b87cc2ba07dfb1daea66fdc646c6578706572696d656e74616cf50037",
  "source": "pragma solidity ^0.5.2;\r\npragma experimental ABIEncoderV2;\r\n\r\nimport \"openzeppelin-solidity/contracts/ownership/Ownable.sol\";\r\nimport \"openzeppelin-solidity/contracts/math/SafeMath.sol\";\r\n\r\ncontract LegoCertificationStore is Ownable {\r\n    using SafeMath for uint256;\r\n\r\n    struct LegoCertificate {\r\n        string name;\r\n        string number;\r\n        string theme;\r\n        string subtheme;\r\n        string descritpion;\r\n        string bricksJsonData;\r\n        uint dna;\r\n    }\r\n\r\n    event NewCertificate(uint certificateId, string name, string number,\r\n        string theme, string subtheme, string descritpion, string bricksJsonData, uint dna);\r\n\r\n    LegoCertificate[] public certificates;\r\n\r\n    mapping (uint => address) private certificateToOwner;\r\n    mapping (address => uint) private ownedCertificatesCount;\r\n\r\n    uint public dnaDigits = 256;\r\n    uint public dnaModulus = (2 ** dnaDigits) - 1;\r\n\r\n    constructor() Ownable() public {\r\n        certificates.length = 0;\r\n    }\r\n\r\n    //\"gdsfgdsfg\",\"gdsfgdsfg\",\"gdsfgdsfg\",\"gdsfgdsfg\",\"gdsfgdsfg\",\"gdsfgdsfg\",[\"gdsfgdsfg\"],[\"gdsfgdsfg\"]\r\n\r\n    function createNewCertificate(string memory _name,\r\n        string memory  _number,\r\n        string memory _theme,\r\n        string memory _subtheme,\r\n        string memory _descritpion,\r\n        string memory _bricksJsonData,\r\n        string[] memory _bricks,\r\n        string[] memory _registers) public {\r\n        // IF dnaModulus == (2 ** dnaDigits) - 1; DOES NOT CUT THE NUMBER\r\n        uint randDna = _generateRandomDna(_name, _descritpion, _bricksJsonData);\r\n        _createCertificate(_name, _number, _theme, _subtheme, _descritpion, _bricksJsonData, randDna);\r\n    }\r\n\r\n    function _createCertificate(string memory _name,\r\n        string memory _number,\r\n        string memory _theme,\r\n        string memory _subtheme,\r\n        string memory _descritpion,\r\n        string memory _bricksJsonData,\r\n        uint _dna) internal {\r\n        uint id = certificates.push(LegoCertificate(_name, _number, _theme, _subtheme, _descritpion, _bricksJsonData, _dna)) - 1;\r\n        certificateToOwner[id] = msg.sender;\r\n        ownedCertificatesCount[msg.sender]++;\r\n        emit NewCertificate(id, _name, _number, _theme, _subtheme, _descritpion, _bricksJsonData, _dna);\r\n    }\r\n\r\n    function getOwnedCertificatesCountByAddress(address _address) public view returns (uint _count) {\r\n        return ownedCertificatesCount[_address];\r\n    }\r\n\r\n    function getOwnedCertificatesCount() public view returns (uint _count) {\r\n        return ownedCertificatesCount[msg.sender];\r\n    }\r\n\r\n    function getCertificatesCount() public view returns(uint){\r\n        return certificates.length;\r\n    }\r\n\r\n    function  getOwnedCertificates(address _address) public view returns (LegoCertificate[] memory _certificates) {\r\n        uint length = getCertificatesCount();\r\n        _certificates = new LegoCertificate[](getOwnedCertificatesCountByAddress(_address));\r\n        for(uint i = 0; i < length; i++){\r\n            if(_address == certificateToOwner[i])\r\n            {\r\n                _certificates[i] = certificates[i];\r\n            }\r\n        }\r\n        return _certificates;\r\n    }\r\n\r\n    function  getOwnedCertificatesIds(address _address) public view returns (uint[] memory _ids) {\r\n        uint length = getCertificatesCount();\r\n        _ids = new uint[](getOwnedCertificatesCountByAddress(_address));\r\n        for (uint i = 0; i < length; i++) {\r\n            if(_address == certificateToOwner[i])\r\n            {\r\n                _ids[i] = i;\r\n            }\r\n        }\r\n        return _ids;\r\n    }\r\n\r\n    function _generateRandomDna(string memory _str1, string memory _str2, string memory _str3) private view returns (uint _dna) {\r\n        uint rand1 = uint(keccak256(abi.encodePacked(_str1)));\r\n        uint rand2 = uint(keccak256(abi.encodePacked(_str2)));\r\n        uint rand3 = uint(keccak256(abi.encodePacked(_str3)));\r\n        return ((rand1 + rand2 - rand3) * rand3) % dnaModulus;\r\n    }\r\n}",
  "sourcePath": "D:\\GitHub\\LegoCertificationStore\\contracts\\LegoCertificationStore.sol",
  "compiler": {
    "name": "solc",
    "version": "0.5.2+commit.1df8f40c.Emscripten.clang"
  },
  "schemaVersion": "2.0.2",
  "updatedAt": "2019-05-19T11:47:39.116Z"
}