{
  "contractName": "LegoCertificationStore",
  "abi": [
    {
      "constant": true,
      "inputs": [
        {
          "name": "",
          "type": "uint256"
        }
      ],
      "name": "certificates",
      "outputs": [
        {
          "name": "name",
          "type": "string"
        },
        {
          "name": "number",
          "type": "string"
        },
        {
          "name": "theme",
          "type": "string"
        },
        {
          "name": "subtheme",
          "type": "string"
        },
        {
          "name": "descritpion",
          "type": "string"
        },
        {
          "name": "bricksJsonData",
          "type": "string"
        },
        {
          "name": "dna",
          "type": "uint256"
        }
      ],
      "payable": false,
      "stateMutability": "view",
      "type": "function"
    },
    {
      "constant": true,
      "inputs": [],
      "name": "dnaDigits",
      "outputs": [
        {
          "name": "",
          "type": "uint256"
        }
      ],
      "payable": false,
      "stateMutability": "view",
      "type": "function"
    },
    {
      "constant": false,
      "inputs": [],
      "name": "renounceOwnership",
      "outputs": [],
      "payable": false,
      "stateMutability": "nonpayable",
      "type": "function"
    },
    {
      "constant": true,
      "inputs": [],
      "name": "owner",
      "outputs": [
        {
          "name": "",
          "type": "address"
        }
      ],
      "payable": false,
      "stateMutability": "view",
      "type": "function"
    },
    {
      "constant": true,
      "inputs": [],
      "name": "isOwner",
      "outputs": [
        {
          "name": "",
          "type": "bool"
        }
      ],
      "payable": false,
      "stateMutability": "view",
      "type": "function"
    },
    {
      "constant": true,
      "inputs": [],
      "name": "dnaModulus",
      "outputs": [
        {
          "name": "",
          "type": "uint256"
        }
      ],
      "payable": false,
      "stateMutability": "view",
      "type": "function"
    },
    {
      "constant": false,
      "inputs": [
        {
          "name": "newOwner",
          "type": "address"
        }
      ],
      "name": "transferOwnership",
      "outputs": [],
      "payable": false,
      "stateMutability": "nonpayable",
      "type": "function"
    },
    {
      "inputs": [],
      "payable": false,
      "stateMutability": "nonpayable",
      "type": "constructor"
    },
    {
      "anonymous": false,
      "inputs": [
        {
          "indexed": false,
          "name": "certificateId",
          "type": "uint256"
        },
        {
          "indexed": false,
          "name": "name",
          "type": "string"
        },
        {
          "indexed": false,
          "name": "number",
          "type": "string"
        },
        {
          "indexed": false,
          "name": "theme",
          "type": "string"
        },
        {
          "indexed": false,
          "name": "subtheme",
          "type": "string"
        },
        {
          "indexed": false,
          "name": "descritpion",
          "type": "string"
        },
        {
          "indexed": false,
          "name": "bricksJsonData",
          "type": "string"
        },
        {
          "indexed": false,
          "name": "dna",
          "type": "uint256"
        }
      ],
      "name": "NewCertificate",
      "type": "event"
    },
    {
      "anonymous": false,
      "inputs": [
        {
          "indexed": true,
          "name": "previousOwner",
          "type": "address"
        },
        {
          "indexed": true,
          "name": "newOwner",
          "type": "address"
        }
      ],
      "name": "OwnershipTransferred",
      "type": "event"
    },
    {
      "constant": false,
      "inputs": [
        {
          "name": "firstNumber",
          "type": "uint256"
        },
        {
          "name": "secondNumber",
          "type": "uint256"
        }
      ],
      "name": "delegatedCalculation",
      "outputs": [],
      "payable": false,
      "stateMutability": "nonpayable",
      "type": "function"
    },
    {
      "constant": false,
      "inputs": [
        {
          "name": "_name",
          "type": "string"
        },
        {
          "name": "_number",
          "type": "string"
        },
        {
          "name": "_theme",
          "type": "string"
        },
        {
          "name": "_subtheme",
          "type": "string"
        },
        {
          "name": "_descritpion",
          "type": "string"
        },
        {
          "name": "_bricksJsonData",
          "type": "string"
        },
        {
          "name": "_bricks",
          "type": "string[]"
        },
        {
          "name": "_registers",
          "type": "string[]"
        }
      ],
      "name": "createNewCertificate",
      "outputs": [],
      "payable": false,
      "stateMutability": "nonpayable",
      "type": "function"
    },
    {
      "constant": true,
      "inputs": [
        {
          "name": "_address",
          "type": "address"
        }
      ],
      "name": "getOwnedCertificatesCountByAddress",
      "outputs": [
        {
          "name": "_count",
          "type": "uint256"
        }
      ],
      "payable": false,
      "stateMutability": "view",
      "type": "function"
    },
    {
      "constant": true,
      "inputs": [],
      "name": "getOwnedCertificatesCount",
      "outputs": [
        {
          "name": "_count",
          "type": "uint256"
        }
      ],
      "payable": false,
      "stateMutability": "view",
      "type": "function"
    },
    {
      "constant": true,
      "inputs": [],
      "name": "getCertificatesCount",
      "outputs": [
        {
          "name": "",
          "type": "uint256"
        }
      ],
      "payable": false,
      "stateMutability": "view",
      "type": "function"
    },
    {
      "constant": true,
      "inputs": [
        {
          "name": "_address",
          "type": "address"
        }
      ],
      "name": "getOwnedCertificates",
      "outputs": [
        {
          "components": [
            {
              "name": "name",
              "type": "string"
            },
            {
              "name": "number",
              "type": "string"
            },
            {
              "name": "theme",
              "type": "string"
            },
            {
              "name": "subtheme",
              "type": "string"
            },
            {
              "name": "descritpion",
              "type": "string"
            },
            {
              "name": "bricksJsonData",
              "type": "string"
            },
            {
              "name": "dna",
              "type": "uint256"
            }
          ],
          "name": "_certificates",
          "type": "tuple[]"
        }
      ],
      "payable": false,
      "stateMutability": "view",
      "type": "function"
    },
    {
      "constant": true,
      "inputs": [
        {
          "name": "_address",
          "type": "address"
        }
      ],
      "name": "getOwnedCertificatesIds",
      "outputs": [
        {
          "name": "_ids",
          "type": "uint256[]"
        }
      ],
      "payable": false,
      "stateMutability": "view",
      "type": "function"
    }
  ],
  "bytecode": "0x6080604052610100600455600160045460020a036005553480156200002357600080fd5b50336000806101000a81548173ffffffffffffffffffffffffffffffffffffffff021916908373ffffffffffffffffffffffffffffffffffffffff1602179055506000809054906101000a900473ffffffffffffffffffffffffffffffffffffffff1673ffffffffffffffffffffffffffffffffffffffff16600073ffffffffffffffffffffffffffffffffffffffff167f8be0079c531659141344cd1fd0a4f28419497f9722a3daafe3b4186f6b6457e060405160405180910390a36000600181620000f19190620000f8565b5062000237565b81548183558181111562000128576007028160070283600052602060002091820191016200012791906200012d565b5b505050565b620001c091905b80821115620001bc5760008082016000620001509190620001c3565b600182016000620001629190620001c3565b600282016000620001749190620001c3565b600382016000620001869190620001c3565b600482016000620001989190620001c3565b600582016000620001aa9190620001c3565b60068201600090555060070162000134565b5090565b90565b50805460018160011615610100020316600290046000825580601f10620001eb57506200020c565b601f0160209004906000526020600020908101906200020b91906200020f565b5b50565b6200023491905b808211156200023057600081600090555060010162000216565b5090565b90565b611dba80620002476000396000f3fe608060405234801561001057600080fd5b5060043610610107576000357c0100000000000000000000000000000000000000000000000000000000900480638f32d59b116100a9578063daba071111610083578063daba07111461025e578063dd4935ae1461027c578063f1d24e4e14610298578063f2fde38b146102c857610107565b80638f32d59b146102045780638fb03a0214610222578063b1eda6731461024057610107565b8063663b3e22116100e5578063663b3e2214610188578063692c6627146101be578063715018a6146101dc5780638da5cb5b146101e657610107565b80630c3ceb2e1461010c5780631985630f1461013c578063495f497214610158575b600080fd5b610126600480360361012191908101906115c5565b6102e4565b6040516101339190611a23565b60405180910390f35b61015660048036036101519190810190611789565b6103d6565b005b610172600480360361016d91908101906115c5565b6103da565b60405161017f9190611a01565b60405180910390f35b6101a2600480360361019d9190810190611760565b6108d4565b6040516101b59796959493929190611a60565b60405180910390f35b6101c6610cb5565b6040516101d39190611af9565b60405180910390f35b6101e4610cbb565b005b6101ee610d8d565b6040516101fb91906119e6565b60405180910390f35b61020c610db6565b6040516102199190611a45565b60405180910390f35b61022a610e0d565b6040516102379190611af9565b60405180910390f35b610248610e1a565b6040516102559190611af9565b60405180910390f35b610266610e61565b6040516102739190611af9565b60405180910390f35b610296600480360361029191908101906115ee565b610e67565b005b6102b260048036036102ad91908101906115c5565b610e90565b6040516102bf9190611af9565b60405180910390f35b6102e260048036036102dd91908101906115c5565b610ed9565b005b606060006102f0610e0d565b90506102fb83610e90565b6040519080825280602002602001820160405280156103295781602001602082028038833980820191505090505b50915060008090505b818110156103cc576002600082815260200190815260200160002060009054906101000a900473ffffffffffffffffffffffffffffffffffffffff1673ffffffffffffffffffffffffffffffffffffffff168473ffffffffffffffffffffffffffffffffffffffff1614156103bf578083828151811015156103b057fe5b90602001906020020181815250505b8080600101915050610332565b5081915050919050565b5050565b606060006103e6610e0d565b90506103f183610e90565b60405190808252806020026020018201604052801561042a57816020015b610417611398565b81526020019060019003908161040f5790505b50915060008090505b818110156108ca576002600082815260200190815260200160002060009054906101000a900473ffffffffffffffffffffffffffffffffffffffff1673ffffffffffffffffffffffffffffffffffffffff168473ffffffffffffffffffffffffffffffffffffffff1614156108bd576001818154811015156104b157fe5b906000526020600020906007020160e06040519081016040529081600082018054600181600116156101000203166002900480601f0160208091040260200160405190810160405280929190818152602001828054600181600116156101000203166002900480156105645780601f1061053957610100808354040283529160200191610564565b820191906000526020600020905b81548152906001019060200180831161054757829003601f168201915b50505050508152602001600182018054600181600116156101000203166002900480601f0160208091040260200160405190810160405280929190818152602001828054600181600116156101000203166002900480156106065780601f106105db57610100808354040283529160200191610606565b820191906000526020600020905b8154815290600101906020018083116105e957829003601f168201915b50505050508152602001600282018054600181600116156101000203166002900480601f0160208091040260200160405190810160405280929190818152602001828054600181600116156101000203166002900480156106a85780601f1061067d576101008083540402835291602001916106a8565b820191906000526020600020905b81548152906001019060200180831161068b57829003601f168201915b50505050508152602001600382018054600181600116156101000203166002900480601f01602080910402602001604051908101604052809291908181526020018280546001816001161561010002031660029004801561074a5780601f1061071f5761010080835404028352916020019161074a565b820191906000526020600020905b81548152906001019060200180831161072d57829003601f168201915b50505050508152602001600482018054600181600116156101000203166002900480601f0160208091040260200160405190810160405280929190818152602001828054600181600116156101000203166002900480156107ec5780601f106107c1576101008083540402835291602001916107ec565b820191906000526020600020905b8154815290600101906020018083116107cf57829003601f168201915b50505050508152602001600582018054600181600116156101000203166002900480601f01602080910402602001604051908101604052809291908181526020018280546001816001161561010002031660029004801561088e5780601f106108635761010080835404028352916020019161088e565b820191906000526020600020905b81548152906001019060200180831161087157829003601f168201915b5050505050815260200160068201548152505083828151811015156108af57fe5b906020019060200201819052505b8080600101915050610433565b5081915050919050565b6001818154811015156108e357fe5b9060005260206000209060070201600091509050806000018054600181600116156101000203166002900480601f01602080910402602001604051908101604052809291908181526020018280546001816001161561010002031660029004801561098f5780601f106109645761010080835404028352916020019161098f565b820191906000526020600020905b81548152906001019060200180831161097257829003601f168201915b505050505090806001018054600181600116156101000203166002900480601f016020809104026020016040519081016040528092919081815260200182805460018160011615610100020316600290048015610a2d5780601f10610a0257610100808354040283529160200191610a2d565b820191906000526020600020905b815481529060010190602001808311610a1057829003601f168201915b505050505090806002018054600181600116156101000203166002900480601f016020809104026020016040519081016040528092919081815260200182805460018160011615610100020316600290048015610acb5780601f10610aa057610100808354040283529160200191610acb565b820191906000526020600020905b815481529060010190602001808311610aae57829003601f168201915b505050505090806003018054600181600116156101000203166002900480601f016020809104026020016040519081016040528092919081815260200182805460018160011615610100020316600290048015610b695780601f10610b3e57610100808354040283529160200191610b69565b820191906000526020600020905b815481529060010190602001808311610b4c57829003601f168201915b505050505090806004018054600181600116156101000203166002900480601f016020809104026020016040519081016040528092919081815260200182805460018160011615610100020316600290048015610c075780601f10610bdc57610100808354040283529160200191610c07565b820191906000526020600020905b815481529060010190602001808311610bea57829003601f168201915b505050505090806005018054600181600116156101000203166002900480601f016020809104026020016040519081016040528092919081815260200182805460018160011615610100020316600290048015610ca55780601f10610c7a57610100808354040283529160200191610ca5565b820191906000526020600020905b815481529060010190602001808311610c8857829003601f168201915b5050505050908060060154905087565b60045481565b610cc3610db6565b1515610cce57600080fd5b600073ffffffffffffffffffffffffffffffffffffffff166000809054906101000a900473ffffffffffffffffffffffffffffffffffffffff1673ffffffffffffffffffffffffffffffffffffffff167f8be0079c531659141344cd1fd0a4f28419497f9722a3daafe3b4186f6b6457e060405160405180910390a360008060006101000a81548173ffffffffffffffffffffffffffffffffffffffff021916908373ffffffffffffffffffffffffffffffffffffffff160217905550565b60008060009054906101000a900473ffffffffffffffffffffffffffffffffffffffff16905090565b60008060009054906101000a900473ffffffffffffffffffffffffffffffffffffffff1673ffffffffffffffffffffffffffffffffffffffff163373ffffffffffffffffffffffffffffffffffffffff1614905090565b6000600180549050905090565b6000600360003373ffffffffffffffffffffffffffffffffffffffff1673ffffffffffffffffffffffffffffffffffffffff16815260200190815260200160002054905090565b60055481565b6000610e74898686610ef8565b9050610e858989898989898761108d565b505050505050505050565b6000600360008373ffffffffffffffffffffffffffffffffffffffff1673ffffffffffffffffffffffffffffffffffffffff168152602001908152602001600020549050919050565b610ee1610db6565b1515610eec57600080fd5b610ef58161129e565b50565b600080846040516020018082805190602001908083835b602083101515610f345780518252602082019150602081019050602083039250610f0f565b6001836020036101000a038019825116818451168082178552505050505050905001915050604051602081830303815290604052805190602001206001900490506000846040516020018082805190602001908083835b602083101515610fb05780518252602082019150602081019050602083039250610f8b565b6001836020036101000a038019825116818451168082178552505050505050905001915050604051602081830303815290604052805190602001206001900490506000846040516020018082805190602001908083835b60208310151561102c5780518252602082019150602081019050602083039250611007565b6001836020036101000a038019825116818451168082178552505050505050905001915050604051602081830303815290604052805190602001206001900490506005548182848601030281151561108057fe5b0693505050509392505050565b600060018060e0604051908101604052808b81526020018a81526020018981526020018881526020018781526020018681526020018581525090806001815401808255809150509060018203906000526020600020906007020160009091929091909150600082015181600001908051906020019061110d9291906113d6565b50602082015181600101908051906020019061112a9291906113d6565b5060408201518160020190805190602001906111479291906113d6565b5060608201518160030190805190602001906111649291906113d6565b5060808201518160040190805190602001906111819291906113d6565b5060a082015181600501908051906020019061119e9291906113d6565b5060c082015181600601555050039050336002600083815260200190815260200160002060006101000a81548173ffffffffffffffffffffffffffffffffffffffff021916908373ffffffffffffffffffffffffffffffffffffffff160217905550600360003373ffffffffffffffffffffffffffffffffffffffff1673ffffffffffffffffffffffffffffffffffffffff168152602001908152602001600020600081548092919060010191905055507f2103c40b1f5e714ab7ed53d7379f1ebf74e43d5e417af90f6dab9fb8b5c3e21e818989898989898960405161128c989796959493929190611b14565b60405180910390a15050505050505050565b600073ffffffffffffffffffffffffffffffffffffffff168173ffffffffffffffffffffffffffffffffffffffff16141515156112da57600080fd5b8073ffffffffffffffffffffffffffffffffffffffff166000809054906101000a900473ffffffffffffffffffffffffffffffffffffffff1673ffffffffffffffffffffffffffffffffffffffff167f8be0079c531659141344cd1fd0a4f28419497f9722a3daafe3b4186f6b6457e060405160405180910390a3806000806101000a81548173ffffffffffffffffffffffffffffffffffffffff021916908373ffffffffffffffffffffffffffffffffffffffff16021790555050565b60e060405190810160405280606081526020016060815260200160608152602001606081526020016060815260200160608152602001600081525090565b828054600181600116156101000203166002900490600052602060002090601f016020900481019282601f1061141757805160ff1916838001178555611445565b82800160010185558215611445579182015b82811115611444578251825591602001919060010190611429565b5b5090506114529190611456565b5090565b61147891905b8082111561147457600081600090555060010161145c565b5090565b90565b60006114878235611d11565b905092915050565b600082601f83011215156114a257600080fd5b81356114b56114b082611be9565b611bbc565b9150818183526020840193506020810190508360005b838110156114fb57813586016114e18882611505565b8452602084019350602083019250506001810190506114cb565b5050505092915050565b600082601f830112151561151857600080fd5b813561152b61152682611c11565b611bbc565b9150808252602083016020830185838301111561154757600080fd5b611552838284611d2d565b50505092915050565b600082601f830112151561156e57600080fd5b813561158161157c82611c3d565b611bbc565b9150808252602083016020830185838301111561159d57600080fd5b6115a8838284611d2d565b50505092915050565b60006115bd8235611d23565b905092915050565b6000602082840312156115d757600080fd5b60006115e58482850161147b565b91505092915050565b600080600080600080600080610100898b03121561160b57600080fd5b600089013567ffffffffffffffff81111561162557600080fd5b6116318b828c0161155b565b985050602089013567ffffffffffffffff81111561164e57600080fd5b61165a8b828c0161155b565b975050604089013567ffffffffffffffff81111561167757600080fd5b6116838b828c0161155b565b965050606089013567ffffffffffffffff8111156116a057600080fd5b6116ac8b828c0161155b565b955050608089013567ffffffffffffffff8111156116c957600080fd5b6116d58b828c0161155b565b94505060a089013567ffffffffffffffff8111156116f257600080fd5b6116fe8b828c0161155b565b93505060c089013567ffffffffffffffff81111561171b57600080fd5b6117278b828c0161148f565b92505060e089013567ffffffffffffffff81111561174457600080fd5b6117508b828c0161148f565b9150509295985092959890939650565b60006020828403121561177257600080fd5b6000611780848285016115b1565b91505092915050565b6000806040838503121561179c57600080fd5b60006117aa858286016115b1565b92505060206117bb858286016115b1565b9150509250929050565b6117ce81611cc9565b82525050565b60006117df82611c83565b808452602084019350836020820285016117f885611c69565b60005b84811015611831578383038852611813838351611918565b925061181e82611caf565b91506020880197506001810190506117fb565b508196508694505050505092915050565b600061184d82611c8e565b80845260208401935061185f83611c76565b60005b82811015611891576118758683516119d7565b61187e82611cbc565b9150602086019550600181019050611862565b50849250505092915050565b6118a681611cdb565b82525050565b60006118b782611ca4565b8084526118cb816020860160208601611d3c565b6118d481611d6f565b602085010191505092915050565b60006118ed82611c99565b808452611901816020860160208601611d3c565b61190a81611d6f565b602085010191505092915050565b600060e083016000830151848203600086015261193582826118e2565b9150506020830151848203602086015261194f82826118e2565b9150506040830151848203604086015261196982826118e2565b9150506060830151848203606086015261198382826118e2565b9150506080830151848203608086015261199d82826118e2565b91505060a083015184820360a08601526119b782826118e2565b91505060c08301516119cc60c08601826119d7565b508091505092915050565b6119e081611d07565b82525050565b60006020820190506119fb60008301846117c5565b92915050565b60006020820190508181036000830152611a1b81846117d4565b905092915050565b60006020820190508181036000830152611a3d8184611842565b905092915050565b6000602082019050611a5a600083018461189d565b92915050565b600060e0820190508181036000830152611a7a818a6118e2565b90508181036020830152611a8e81896118e2565b90508181036040830152611aa281886118e2565b90508181036060830152611ab681876118e2565b90508181036080830152611aca81866118e2565b905081810360a0830152611ade81856118e2565b9050611aed60c08301846119d7565b98975050505050505050565b6000602082019050611b0e60008301846119d7565b92915050565b600061010082019050611b2a600083018b6119d7565b8181036020830152611b3c818a6118ac565b90508181036040830152611b5081896118ac565b90508181036060830152611b6481886118ac565b90508181036080830152611b7881876118ac565b905081810360a0830152611b8c81866118ac565b905081810360c0830152611ba081856118ac565b9050611baf60e08301846119d7565b9998505050505050505050565b6000604051905081810181811067ffffffffffffffff82111715611bdf57600080fd5b8060405250919050565b600067ffffffffffffffff821115611c0057600080fd5b602082029050602081019050919050565b600067ffffffffffffffff821115611c2857600080fd5b601f19601f8301169050602081019050919050565b600067ffffffffffffffff821115611c5457600080fd5b601f19601f8301169050602081019050919050565b6000602082019050919050565b6000602082019050919050565b600081519050919050565b600081519050919050565b600081519050919050565b600081519050919050565b6000602082019050919050565b6000602082019050919050565b6000611cd482611ce7565b9050919050565b60008115159050919050565b600073ffffffffffffffffffffffffffffffffffffffff82169050919050565b6000819050919050565b6000611d1c82611ce7565b9050919050565b6000819050919050565b82818337600083830152505050565b60005b83811015611d5a578082015181840152602081019050611d3f565b83811115611d69576000848401525b50505050565b6000601f19601f830116905091905056fea265627a7a723058204589337c3c7a0ba79b9c30c88045620fc2712bee4a09c56b4b8976c5252bb19a6c6578706572696d656e74616cf50037",
  "source": "pragma solidity ^0.5.2;\r\npragma experimental ABIEncoderV2;\r\n\r\nimport \"openzeppelin-solidity/contracts/ownership/Ownable.sol\";\r\nimport \"openzeppelin-solidity/contracts/ownership/Secondary.sol\";\r\nimport \"openzeppelin-solidity/contracts/math/SafeMath.sol\";\r\n\r\n//import \"Migrations.sol\";\r\n\r\ncontract LegoCertificationStore is Ownable {\r\n    using SafeMath for uint256;\r\n\r\n    struct LegoCertificate {\r\n        string name;\r\n        string number;\r\n        string theme;\r\n        string subtheme;\r\n        string descritpion;\r\n        string bricksJsonData;\r\n        uint dna;\r\n    }\r\n\r\n    event NewCertificate(uint certificateId, string name, string number,\r\n        string theme, string subtheme, string descritpion, string bricksJsonData, uint dna);\r\n\r\n    LegoCertificate[] public certificates;\r\n\r\n    mapping (uint => address) private certificateToOwner;\r\n    mapping (address => uint) private ownedCertificatesCount;\r\n\r\n    uint public dnaDigits = 256;\r\n    uint public dnaModulus = (2 ** dnaDigits) - 1;\r\n\r\n    constructor() Ownable() public {\r\n        certificates.length = 0;\r\n        //linkedContract = new Migrations();\r\n    }\r\n\r\n    //Migrations linkedContract;\r\n\r\n    function delegatedCalculation(uint firstNumber, uint secondNumber) public {\r\n        bool status;\r\n        bytes memory result;\r\n        // (status, result) = linkedContract.delegatecall(\r\n        //     abi.encodePacked(bytes4(keccak256(\"calculate(uint256,uint256)\")), firstNumber, secondNumber)\r\n        //     );\r\n    }\r\n\r\n    //\"gdsfgdsfg\",\"gdsfgdsfg\",\"gdsfgdsfg\",\"gdsfgdsfg\",\"gdsfgdsfg\",\"gdsfgdsfg\",[\"gdsfgdsfg\"],[\"gdsfgdsfg\"]\r\n\r\n    function createNewCertificate(string memory _name,\r\n        string memory  _number,\r\n        string memory _theme,\r\n        string memory _subtheme,\r\n        string memory _descritpion,\r\n        string memory _bricksJsonData,\r\n        string[] memory _bricks,\r\n        string[] memory _registers) public {\r\n        // IF dnaModulus == (2 ** dnaDigits) - 1; DOES NOT CUT THE NUMBER\r\n        uint randDna = _generateRandomDna(_name, _descritpion, _bricksJsonData);\r\n        _createCertificate(_name, _number, _theme, _subtheme, _descritpion, _bricksJsonData, randDna);\r\n    }\r\n\r\n    function _createCertificate(string memory _name,\r\n        string memory _number,\r\n        string memory _theme,\r\n        string memory _subtheme,\r\n        string memory _descritpion,\r\n        string memory _bricksJsonData,\r\n        uint _dna) internal {\r\n        uint id = certificates.push(LegoCertificate(_name, _number, _theme, _subtheme, _descritpion, _bricksJsonData, _dna)) - 1;\r\n        certificateToOwner[id] = msg.sender;\r\n        ownedCertificatesCount[msg.sender]++;\r\n        emit NewCertificate(id, _name, _number, _theme, _subtheme, _descritpion, _bricksJsonData, _dna);\r\n    }\r\n\r\n    function getOwnedCertificatesCountByAddress(address _address) public view returns (uint _count) {\r\n        return ownedCertificatesCount[_address];\r\n    }\r\n\r\n    function getOwnedCertificatesCount() public view returns (uint _count) {\r\n        return ownedCertificatesCount[msg.sender];\r\n    }\r\n\r\n    function getCertificatesCount() public view returns(uint){\r\n        return certificates.length;\r\n    }\r\n\r\n    function  getOwnedCertificates(address _address) public view returns (LegoCertificate[] memory _certificates) {\r\n        uint length = getCertificatesCount();\r\n        _certificates = new LegoCertificate[](getOwnedCertificatesCountByAddress(_address));\r\n        for(uint i = 0; i < length; i++){\r\n            if(_address == certificateToOwner[i])\r\n            {\r\n                _certificates[i] = certificates[i];\r\n            }\r\n        }\r\n        return _certificates;\r\n    }\r\n\r\n    function  getOwnedCertificatesIds(address _address) public view returns (uint[] memory _ids) {\r\n        uint length = getCertificatesCount();\r\n        _ids = new uint[](getOwnedCertificatesCountByAddress(_address));\r\n        for (uint i = 0; i < length; i++) {\r\n            if(_address == certificateToOwner[i])\r\n            {\r\n                _ids[i] = i;\r\n            }\r\n        }\r\n        return _ids;\r\n    }\r\n\r\n    function _generateRandomDna(string memory _str1, string memory _str2, string memory _str3) private view returns (uint _dna) {\r\n        uint rand1 = uint(keccak256(abi.encodePacked(_str1)));\r\n        uint rand2 = uint(keccak256(abi.encodePacked(_str2)));\r\n        uint rand3 = uint(keccak256(abi.encodePacked(_str3)));\r\n        return ((rand1 + rand2 - rand3) * rand3) % dnaModulus;\r\n    }\r\n}",
  "sourcePath": "D:\\GitHub\\LegoCertificationStore\\contracts\\LegoCertificationStore.sol",
  "compiler": {
    "name": "solc",
    "version": "0.5.2+commit.1df8f40c.Emscripten.clang"
  },
  "schemaVersion": "2.0.2",
  "updatedAt": "2019-05-19T12:27:08.844Z"
}